:100000000C94D61F0C9407200C9407200C94072006
:100010000C9407200C9407200C9407200C940720C4
:100020000C9407200C9407200C9407200C940720B4
:100030000C9407200C9407200C9407200C940720A4
:100040000C9407200C94FF880C9407200C94072034
:100050000C9407200C9407200C948EB90D946149E0
:100060000C9407200C94A7400C949D400C940720FE
:100070000C9407200C9407200C9407200C94072064
:100080000C9475380C9407200C9407200C940720CE
:100090000C9407200C9407200C9407200C94072044
:1000A0000C9407200C9407200C9447380C940720DC
:1000B0000C9407200C9407200C9407200C94072024
:1000C0000C9407200C9407200C9407200C94072014
:1000D0000C9407200C9407200C9407200C94072004
:1000E0000C940720DD40EF40014112411A414D417F
:1000F0001E414D41224126414D412A412E4132416E
:100100003B414D414641BD7DA07DA37DC07DA67D87
:10011000A97DAC7DB87DAF7DCB7DB27DB57D99AB42
:1001200008AA41AAD5AB41AA41AA41AA41AA41AA1B
:1001300041AA41AA41AA41AA41AA41AA41AA41AA67
:1001400041AA41AA41AA41AA41AA41AA41AA41AA57
:1001500041AA41AA41AA41AA41AACFAB41AA41AAB8
:1001600041AA41AA41AA41AA41AA41AAA8AB41AACF
:1001700041AA41AA41AA41AA41AA41AA41AA41AA27
:1001800041AAECAB3EAA45026902DF01C10265014A
:100190006B0249016B01930267027F020D016F013F
:1001A00083016B02F701EF019F01CB01E1014D02D9
:1001B000BD02DD012D025301BB022101F901F50150
:1001C0007B023702BF022D02910165024B01084AF2
:1001D000D73B3BCE016E84BCBFFDC12F3D6C74315B
:1001E0009ABD56833DDA3D00C77F11BED9E4BB4CB2
:1001F0003E916BAAAABE000000803F05A84CCDB27C
:10020000D44EB93836A9020C50B9918688083CA65C
:10021000AAAA2ABE000000803F000D94A6470C94B5
:10022000CC6C0C9478AD0C94B16E0C94B17B0D94A5
:1002300081330C943CCD0C940F6F0C948B6C0C940C
:100240000CCF0D94B3480C9446410C9433CA0C94D3
:10025000EF400C94B07A0C94747D0C94A37D0C94B4
:10026000AEEB0D94ED330C94A47A0C941A6C0C94B0
:100270008C7A0D94142C0C9401410C9496EB0C94F4
:1002800010CF0C94D87A0D94F3590C94A8E50D94E2
:100290008E370D948E470D9408490C9435E30C94D9
:1002A000DC740D9440370D94A3480C94BA6B0D94F4
:1002B000F1590D9412280C94ECAB0C94B4E50C9409
:1002C000A67D0C942D6C0C94D5AB0D9483470C94A7
:1002D00076780C94A56E0D9492470C94E6E80D94F4
:1002E000AA470C94987A0D946B210C947BE60C949D
:1002F00031CA0C94B1740C94596C0D94D9210C949E
:10030000F8EB0D94D5210D94AE470C941E410C943E
:100310009C7A0D94C0210C9412410C9473E60C94B9
:10032000947A0D94F4480C94A07A0C94726E0C9408
:100330006C6E0C94ED5F0C9486A90C9433930D9421
:10034000BC470C94B67A0D949A370C9405770C94AC
:10035000546E0C94A3810D94D2330C94B0EB0C9496
:10036000E47A0C94FFEB0C94466C0C9483A90D94E6
:10037000B7330C94F5740C94FB7D0C94D0710C94F1
:100380004BB20C94DD400C94605F0D946F350C946F
:10039000B87D0D94D8270D947B480C94486E0C942E
:1003A0000ACF0C94C9740D94FF330C948B5F0C949A
:1003B0008D720C94A87A0C94076C0D9499480D9446
:1003C00079470D9480480C94606E0C94ACEB0C94BF
:1003D000A07D0C94B9EE0C94966E0C9478E50D9477
:1003E000B8470C94FFEC0C94726C0D94C7480D94B4
:1003F000B4470D94BD480D9482390C94127E0C9430
:10040000BFE50C947DE50C94F1F10C94DE7A0C942C
:10041000B27D0C94AC7D0C9435CA0C94A2E50D947D
:100420000D5A0C9465F00C94C07D0C94CB7D0C940B
:10043000BC6C0C9409860C943EAA0C941A410C9442
:1004400026E30C94A16B0C94C0740D94BC210C9405
:100450001FE60C94E47D0C94645F0D9412490C9497
:10046000EC6B0C94AF7D0C9426410C941DF20D9412
:10047000E0480C94A8CB0C9437CA0C943AE30C9443
:10048000A1EB0C943C6E0C947B9E0D9487470C94CE
:10049000786E0C940ECF0C9493750D9485480C9443
:1004A000AEE50C94615F0C94907A0C9400E60C9489
:1004B0009CE50C9482E50C94426E0C945A6E0C945C
:1004C00098A90C94887A0C949B700D94FE480D9416
:1004D0009C470D948A470D94C1470C9432410C946B
:1004E000BD7D0C9473EB0C9441AA0C94807D0D940B
:1004F0009C330C94CF6E0D94D1480C9499AB0D9411
:10050000A0470D94D1210C94CFAB0C94B97A0C94E4
:100510004D410C94519E0C942BE30C94A46C0C94C0
:10052000D36B0C943B410D9498470C94876E0C94BC
:10053000A97D0C947EE70C944E6E0C9430E30C94E1
:10054000AD6C0C947C7E0C94666E0D9484370D9487
:1005500058330C94297E0C942A410C9489A90C944C
:100560004EAD0C94807E0D94A0370C94366E0C9496
:10057000CD7D0C94C76C0D94AB480D948F480D94B1
:10058000EA480D947D470C94B37A0D9466330C942D
:100590002C760C9408CF0C94C57A0C94A8AB0C94D0
:1005A000B57D0C942E410C94AC7A0C94C06E0C94D6
:1005B00008AA0C94B1710C9422414E414E494E4907
:1005C0005459494E46CDCCCC3D0AD7233C17B7D120
:1005D0003877CC2B329595E6241FB14F0A000020C6
:1005E000410000C84200401C4620BCBE4CCA1B0E45
:1005F0005AAEC59D7400407A10F35A00A0724E188E
:10060000090010A5D4E80000E87648170000E40BC4
:1006100054020000CA9A3B000000E1F5050000808A
:10062000969800000040420F000000A086010000E4
:1006300000102700000000E8030000000064000034
:100640000000000A00000000000100000000002C73
:1006500076D888DC674F0823DFC1DFAE59E1B1B738
:1006600096E5E3E453C63AE651997696E8E6C28405
:1006700026EB898C9B62ED407C6FFCEFBC9C9F401D
:10068000F2BAA56FA5F490055A2AF75C936B6CF942
:10069000676DC11BFCE0E40D47FEF520E6B500D018
:1006A000ED902E0300943577050080841E0800002D
:1006B000204E0A000000C80C333333330F986E12FB
:1006C000831141EF8D2114893BE65516CFFEE6DB01
:1006D00018D1844B381BF77C1D901DA4BBE424204B
:1006E0003284725E228100C9F124ECA1E53D2743EA
:1006F0004F4D4D554E49434154494F4E0044525978
:1007000052554E004552524F5253004543484F00F8
:1007100047322F47332062616420706172616D65DA
:10072000746572730A00536C6565702E2E2E005A24
:100730002050726F62652050617374204265640AB4
:10074000005A2050726F62652050617374204265B8
:1007500064004D3131372050726F626520666169E7
:100760006C65642E205265776970696E672E0A4742
:1007700032380A4731322050302053313220543041
:100780000070726F62655F726577697065004732ED
:1007900039205265747279696E67004D31313720A6
:1007A000426564206C6576656C696E672066616978
:1007B0006C65642E0A4730205A31300A4D33303090
:1007C0002050323520533838300A4D3330302050E5
:1007D00035302053300A4D333030205032352053DD
:1007E0003838300A4D333030205035302053300AFD
:1007F0004D3330302050323520533838300A4D33A5
:100800003030205035302053300A473420533100E7
:1008100070726F62655F6661696C6564004D31314D
:100820003720426564206C6576656C696E6720646C
:100830006F6E652E004D65736820706F696E742051
:100840006F7574206F662072616E67650A004D30A7
:100850002053746F70004D312053746F7000436CDF
:1008600069636B20746F20526573756D652E2E2E33
:10087000004E6F204D6F76652E00456E64206669D0
:100880006C65206C6973740A00426567696E206646
:10089000696C65206C6973740A004E6F206D656425
:1008A00069610A00526573756D696E672053440073
:1008B000286E6F2066696C65290043757272656EDB
:1008C000742066696C653A200044656C6574696FD4
:1008D0006E206661696C65642C2046696C653A20FF
:1008E0000046696C652064656C657465643A005007
:1008F00072696E742074696D653A20000A537461E0
:1009000074733A2046696C616D656E742075736509
:10091000643A20002C204C6F6E67657374206A6FF8
:10092000623A2000546F74616C2074696D653A20DE
:10093000002C204661696C65643A20002C204669D1
:100940006E69736865643A20005072696E74733A18
:10095000200053746174733A2000452025530044ED
:10096000454255473A004D313133205300426564CA
:1009700020436F6F6C696E672E2E2E0042656420D7
:1009800048656174696E672E2E2E004D44472043E2
:10099000522D3130205633204F46462E002F2F2027
:1009A000004D31343520533C696E6465783E206FCC
:1009B0007574206F662072616E67652028302D3156
:1009C000290A0046523A0020466C6F773A200050C0
:1009D000726F7465637465642050696E0A002053F9
:1009E0006572766F200020643A0020693A0020701A
:1009F0003A006469730043290A0061626C656420EF
:100A0000286D696E2074656D702000436F6C6420E2
:100A1000657874727564657320617265200046693B
:100A20006C616D656E742072756E6F75742064698B
:100A30007374616E636520286D6D293A20004669E4
:100A40006C616D656E742072756E6F757420004DEB
:100A500034323120696E636F727265637420706125
:100A600072616D657465722075736167650A004512
:100A70004550524F4D204F4B0A00446F6E65207019
:100A800072696E74696E672066696C650A004D371D
:100A900037004D3331000B07B40A0407FD06EF069B
:100AA000554E4B4E4F574E205354415445004743EB
:100AB0004F44455F494E464F004C43445F504155BB
:100AC00053455F524553554D450046494C414D45B0
:100AD0004E545F52554E4F55545F434F4E54494EFE
:100AE00055450046494C414D454E545F52554E4F79
:100AF0005554004D38373620526573706F6E6469F7
:100B00006E672050524F4D50545F004572726F72A5
:100B10002077726974696E6720746F204545505262
:100B20004F4D210A004E6F20436865636B73756DEE
:100B30002077697468206C696E65206E756D6265DA
:100B4000722C204C617374204C696E653A200063EE
:100B50006865636B73756D206D69736D617463682F
:100B60002C204C617374204C696E653A20004C69EE
:100B70006E65204E756D626572206973206E6F74AC
:100B8000204C617374204C696E65204E756D6265F2
:100B9000722B312C204C617374204C696E653A20A5
:100BA000004D31313000534420726561642065721C
:100BB000726F720A002121204B494C4C20636175F1
:100BC000736564206279204B494C4C2062757474C3
:100BD0006F6E2F70696E0A002121204B494C4C200A
:100BE00063617573656420627920746F6F206D7521
:100BF000636820696E6163746976652074696D65E8
:100C0000202D2063757272656E7420636F6D6D6147
:100C10006E643A2000627573793A2070617573656D
:100C20006420666F7220696E7075740A0062757355
:100C3000793A2070617573656420666F72207573F0
:100C400065720A00627573793A2070726F6365731A
:100C500073696E670A004D656469612052656D6F46
:100C6000766564004D6564696120496E73657274D0
:100C70006564007061757365004D36303000206624
:100C8000696C616D656E745F72756E6F757420004E
:100C900066696C616D656E745F72756E6F757420D8
:100CA000540046696C616D656E7452756E6F757433
:100CB000205400363726033C3D380E2E303E131AA2
:100CC0001C180AFF43080907084400017265737580
:100CD0006D656400526573756D696E6700473236E5
:100CE0002048656174696E67204E6F7A7A6C650082
:100CF0004732362048656174696E6720426564003A
:100D000057616974696E6720666F722068656174E7
:100D100075702E0A004669786564204C656E6774AC
:100D200068205072696D6500446F6E65205072696D
:100D30006D696E67004D616E75616C207072696DD2
:100D4000696E672E2E2E004732362043616E636532
:100D50006C6564004C656176696E672047323600C9
:100D60003F53706563696669656420582C59206338
:100D70006F6F7264696E617465206F7574206F6641
:100D800020626F756E64732E0A003F2852296570C9
:100D90006561742076616C7565206E6F7420706C6F
:100DA00061757369626C653B206D75737420626553
:100DB000206174206C6561737420312E0A003F53EA
:100DC0007065636966696564206E6F7A7A6C652008
:100DD00074656D7065726174757265206E6F7420D4
:100DE000706C61757369626C652E0A003F537065A3
:100DF0006369666965642066696C616D656E7420FF
:100E000073697A65206E6F7420706C6175736962A6
:100E10006C652E0A003F53706563696669656420DE
:100E20007072696D65206C656E677468206E6F7492
:100E300020706C61757369626C652E0A003F537097
:100E400065636966696564206E6F7A7A6C65207384
:100E5000697A65206E6F7420706C61757369626C5D
:100E6000652E0A003F52657472616374696F6E206B
:100E70004D756C7469706C696572206D7573742042
:100E80006265207370656369666965642E0A003F58
:100E90005370656369666965642052657472616345
:100EA00074696F6E204D756C7469706C6965722021
:100EB0006E6F7420706C61757369626C652E0A00C8
:100EC0003F537065636966696564206C617965721A
:100ED00020686569676874206E6F7420706C617536
:100EE0007369626C652E0A0043292E0A003F537015
:100EF00065636966696564206265642074656D7008
:100F000065726174757265206E6F7420706C6175A6
:100F10007369626C65202834302D004732362073A7
:100F200074617274696E672E2E2E0A00506C6561B2
:100F30007365205265736574005052494E54455292
:100F40002048414C5445440025533A202553007015
:100F50006F7765726F6666004B494C4C45442E2096
:100F6000005072696E7465722068616C7465642EDD
:100F7000206B696C6C28292063616C6C6564210AA4
:100F8000006563686F3A004572726F723A00426999
:100F90006C696E656172204C6576656C696E672060
:100FA000477269643A0A0053544F505045442E200A
:100FB000005072696E7465722073746F707065642E
:100FC0002064756520746F206572726F72732E20B5
:100FD00046697820746865206572726F7220616E50
:100FE0006420757365204D39393920746F2072651E
:100FF00073746172742E202854656D70657261740B
:101000007572652069732072657365742E2053654F
:1010100074206974206166746572207265737461EE
:101020007274696E67290A0021212053544F5020A1
:1010300063616C6C65642062656361757365206FC4
:101040006620424C546F756368206572726F72201F
:101050002D20726573746172742077697468204DF5
:101060003939390A005072696E74696E67204F62AF
:101070006A656374002553202569002F2F6163740E
:10108000696F6E3A00656E640070726F6D70745FA8
:101090000073686F770044697361626C6552756EA6
:1010A0006F75740050757267654D6F726500486F9B
:1010B00074656E6420746F6F20636F6C640A0053F4
:1010C000656E64204D31303820746F207265737501
:1010D0006D650A0052656865617420446F6E650035
:1010E000526568656174696E672E2E2E00526568C0
:1010F000656174004865617465722054696D656F3F
:1011000075740053656E64204D31303820746F2043
:1011100068656174206E6F7A7A6C650A004E6F7A2A
:101120007A6C65205061726B6564007061757365DF
:10113000640025697920256964202569682025696E
:101140006D202569730023646566696E65204445DA
:101150004641554C545F004B6420004B6920004BC6
:10116000702000504944204175746F74756E65207D
:1011700066696E69736865642120507574207468AF
:1011800065206C617374204B702C204B6920616E5C
:1011900064204B6420636F6E7374616E7473206699
:1011A000726F6D2062656C6F7720696E746F20437B
:1011B0006F6E66696775726174696F6E2E680A007A
:1011C000504944204175746F74756E65206661697D
:1011D0006C6564212074696D656F75740A000A205E
:1011E000436C617373696320504944200A00204BAB
:1011F000643A2000204B693A2000204B703A2000CE
:101200000A204E6F206F76657273686F6F740A00E4
:101210002054753A2000204B753A2000206D6178EB
:101220003A2000206D696E3A200020643A200020A8
:10123000626961733A2000504944204175746F74AB
:10124000756E652073746172740A005049442041C0
:1012500075746F74756E65206661696C65642120B4
:1012600054656D706572617475726520746F6F205E
:10127000686967680A00504944204175746F747545
:101280006E6500504944204175746F74756E652019
:101290006661696C656421204261642065787472BE
:1012A00075646572206E756D6265720A00457272B2
:1012B0003A207574663820666F6E74206E6F7420E5
:1012C000696E697469616C697A65642E00000C0F3F
:1012D00000FE07022503BB017FFE08FE08FE05088D
:1012E0000806000040F0C8888898781005080806AD
:1012F0000000C0F88888888888F805050506000180
:101300002030F830200508080600002070F8202062
:101310002020E00509090600FF2070A8A8B88888E9
:101320007020070505070001D86C366CD80509093F
:101330000600FFF8A88888888888A8F8050A0A06A1
:1013400000FE205050505088A8A888700303030660
:10135000000340A040FFFFFFFFFFFFFFFFFFFFFF75
:10136000FFFFFFFFFFFFFFFFFFFFFF00000006057D
:10137000FF01070706020080808080800080030351
:1013800003060105A0A0A005060606000050F850BF
:1013900050F8500509090600FF2070A8A07028A881
:1013A0007020050707060000C8C81020409898055F
:1013B000070706000040A0A040A8906801030306AC
:1013C00002058080800309090601FF2040408080DB
:1013D000804040200309090601FF80404020202072
:1013E00040408005070706000020A8702070A82054
:1013F0000505050600012020F82020020303060150
:10140000FFC04080050101060003F8020202060148
:1014100000C0C005070706000008101020404080EB
:10142000050707060000708898A8C888700307079A
:1014300006010040C040404040E0050707060000AC
:10144000708808102040F8050707060000F808100B
:101450003008887005070706000010305090F8101B
:1014600010050707060000F880F0080888700507D7
:1014700007060000304080F08888700507070600E6
:1014800000F80810102020200507070600007088CB
:1014900088708888700507070600007088887808BB
:1014A0001060020505060100C0C000C0C0020606AB
:1014B0000601FFC0C000C0408003050506010120F1
:1014C00040804020050303060002F800F8030505EC
:1014D0000601018040204080050707060000708853
:1014E00010202000200507070600007088B8A8B863
:1014F0008070050707060000708888F888888805CE
:101500000707060000F04848704848F0050707063E
:10151000000070888080808870050707060000F052
:101520004848484848F0050707060000F88080F062
:101530008080F8050707060000F88080F080808032
:1015400005070706000070888080988870050707E7
:10155000060000888888F888888803070706010045
:10156000E04040404040E00507070600003810100A
:10157000101090600507070600008890A0C0A0909A
:1015800088050707060000808080808080F80507B6
:101590000706000088D8A8888888880507070600FD
:1015A000008888C8A8988888050707060000708802
:1015B0008888888870050707060000F08888F08012
:1015C000808005070706000070888888A890680555
:1015D0000707060000F08888F0A090880507070636
:1015E000000070888070088870050707060000F802
:1015F00020202020202005070706000088888888F2
:101600008888700507070600008888888850502061
:1016100005070706000088888888A8A850050707DE
:1016200006000088885020508888050707060000BB
:1016300088885020202020050707060000F80810A1
:10164000204080F80309090601FFE0808080808047
:101650008080E00507070600008040402010100849
:101660000309090601FFE020202020202020E005BA
:1016700003030600052050880501010600FEF8035B
:1016800003030601058040200505050600007008DB
:101690007888780507070600008080F0888888F041
:1016A00005050506000070808088700507070600A4
:1016B0000008087888888878050505060000708885
:1016C000F08070050707060000304840E0404040C9
:1016D0000507070600FE70888888780870050707E8
:1016E0000600008080F088888888030707060100CC
:1016F0004000C0404040E00409090601FE100030EF
:101700001010101090600507070600008080889078
:10171000E09088030707060100C04040404040E0D9
:10172000050505060000D0A8A8A8A805050506001F
:1017300000B0C8888888050505060000708888887C
:10174000700507070600FEF0888888F0808005078E
:10175000070600FE788888887808080505050600D1
:1017600000B0C880808005050506000078807008FC
:10177000F00507070600002020F8202020180505A6
:101780000506000088888898680505050600008819
:10179000888850200505050600008888A8A85005FF
:1017A000050506000088502050880507070600FE42
:1017B00088888850204080050505060000F8102024
:1017C00040F80309090601FF2040404080404040A6
:1017D000200109090602FF8080808080808080804F
:1017E0000309090601FF8040404020404040800539
:1017F000030306000248A890FF45207374657073C8
:101800002F6D6D005A2053746570732F6D6D0059E4
:101810002053746570732F6D6D005820537465707C
:10182000732F6D6D00496E69740050726F62652090
:101830004F66667365747300416363656C657261BE
:1018400074696F6E0056656C6F63697479005A2015
:1018500056616C756500496E646578205900496E63
:10186000646578205800466164652048656967684A
:10187000740045646974204D657368004C65766535
:101880006C20426564004732380A4732390052758D
:101890006E6F75742053656E736F7200554E4C4FAA
:1018A00041442046494C414D454E540046494C4127
:1018B0004D454E54204348414E4745004D37303248
:1018C00020542564004D36303020423020542564A9
:1018D000004D373032203B2564004D3730312054E5
:1018E0002564004D373032004D373031004D3630F1
:1018F00030204230005075726765206D6F72650050
:10190000524553554D45204F5054494F4E533A0080
:101910005052494E54205041555345440020204ECA
:101920006F7A7A6C653A2000256C642E25696D000B
:10193000457874727564656420546F74616C004CF2
:101940006F6E67657374204A6F622054696D65001D
:101950003E2000546F74616C205072696E74205484
:10196000696D6500436F6D706C65746564005072DD
:10197000696E7420436F756E7400313230004245D9
:10198000443A204550434F53203130304B0052757C
:101990006E617761792057617463683A204F4E0019
:1019A0004D61782054656D7000323535004D696E9B
:1019B0002054656D700045313A204550434F532007
:1019C0003130304B005053550047656E6572696386
:1019D0000050726F746F636F6C00312E3000426183
:1019E00075640031313532303000437265616C69A5
:1019F000747933442052414D50530042696C696EF2
:101A0000656172204C6576656C696E670045787417
:101A1000727564657273004D44472043522D313016
:101A200020563300323032302D30392D32390050CB
:101A300072696E74657220537461747300546865C2
:101A4000726D6973746F727300426F6172642049C2
:101A50006E666F005072696E74657220496E666FB3
:101A6000005061726B696E672E2E2E000000576168
:101A7000697420666F720066696C616D656E7420B2
:101A80006368616E676500746F20737461727400BF
:101A90005761697420666F720066696C616D656E6E
:101AA0007420756E6C6F616400004E6F7A7A6C659D
:101AB0002068656174696E6700506C6561736520AC
:101AC000776169742E2E2E00005072657373206248
:101AD0007574746F6E00746F2068656174206E6F2A
:101AE0007A7A6C650000496E736572742066696C61
:101AF000616D656E7400616E642070726573732031
:101B0000627574746F6E00746F20636F6E74696EAB
:101B10007565005761697420666F720066696C6153
:101B20006D656E74206C6F61640000507265737334
:101B300020427574746F6E00746F20726573756DDA
:101B400065207072696E7400005761697420666F59
:101B500072207072696E7400746F20726573756D97
:101B6000652E2E2E00005761697420666F72006624
:101B7000696C616D656E74207075726765000052E6
:101B8000756E6F75742044697374206D6D004C6FB1
:101B90006164206D6D00556E6C6F6164206D6D0029
:101BA00046696C2E204469612E004520696E206DC7
:101BB0006DC2B3004D3330332055312045256920A7
:101BC00053256900504944204175746F74756E65E2
:101BD000202A005049442D44202A005049442D49D0
:101BE000202A005049442D50202A00200820466118
:101BF0006374002008204D6178002008204D696E34
:101C0000004175746F74656D700024F4D43050C356
:101C10008E20C2A24017828B7011127A910D816CB6
:101C2000D90AA861E108C7586607615143061E4BEF
:101C30005D05C145A7041A411104093D9803713996
:101C400031034036DB0265339102D4305402802EDA
:101C50001D02632CEE01752AC501B028A0011027D2
:101C600081018F2564012B244B01E0223401AC213A
:101C70001F018D200D01801FFC00841EED00971DAB
:101C8000DF00B81CD200E61BC600201BBC00641A93
:101C9000B200B219A8000A19A0006A189900D11759
:101CA000910040178B00B516840031167E00B315E5
:101CB00079003A157300C7146F0058146A00EE13C8
:101CC00066008813630025135E00C7125B006C1268
:101CD000570015125400C111510070114F0021110D
:101CE0004B00D61049008D104700461044000210EA
:101CF0004200C00F4000800F3E00420F3C00060F24
:101D00003B00CB0E3800930E37005C0E3500270EDB
:101D10003400F30D3200C10D3100900D3000600D24
:101D20002E00320D2D00050D2C00D90C2B00AE0C11
:101D30002900850C29005C0C2700350C27000E0CAF
:101D40002600E80B2400C40B2400A00B23007D0B0D
:101D500023005A0B2100390B2100180B2000F80A30
:101D60001F00D90A1E00BB0A1E009D0A1D00800A22
:101D70001D00630A1C00470A1B002C0A1B00110AE5
:101D80001A00F7091A00DD091900C4091900AB0986
:101D90001900920917007B091800630917004C0904
:101DA000160036091600200916000A091500F50864
:101DB0001500E0081400CC081400B8081400A408AA
:101DC0001400900813007D0812006B0813005808D7
:101DD00012004608120034081100230811001208EE
:101DE000110001081100F0071000E0071000D007F3
:101DF0001000C0071000B0070F00A10710009107E6
:101E00000E0083070F0074070F0065070E005707C9
:101E10000E0049070E003B070D002E070E0020079D
:101E20000D0013070D0006070D00F9060C00ED0666
:101E30000D00E0060C00D4060C00C8060C00BC0621
:101E40000C00B0060C00A4060B0099060C008D06D1
:101E50000B0082060B0077060B006C060B00610678
:101E60000A0057060B004C060A0042060A00380614
:101E70000A002E060A0024060A001A060A001006A6
:101E8000090007060A00FD050900F4050900EB0535
:101E90000900E2050900D9050900D0050900C705B8
:101EA0000900BE050900B5050800AD050800A50537
:101EB00009009C050800940508008C0508008405AD
:101EC00008007C050800740508006C05070065051E
:101ED00008005D050700560508004E050700470588
:101EE00007004005080038050700310507002A05EE
:101EF0000700230507001C050600160507000F054F
:101F000007000805060002050700FB040600F504AB
:101F10000700EE040600E8040600E2040700DB0404
:101F20000600D5040600CF040600C9040600C30459
:101F30000600BD040600B7040600B1040500AC04A9
:101F40000600A6040600A00405009B0406009504F4
:101F50000500900406008A0405008504050080043D
:101F600006007A04050075040500700405006B0482
:101F7000050066040500610405005C0405005704C3
:101F80000500520405004D04050048040500430403
:101F900005003E0404003A04050035040500300441
:101FA00004002C04050027040400230405001E047B
:101FB00004001A04040016040500110404000D04B2
:101FC0000400090405000404040000040400FC03E8
:101FD0000400F8030400F4030400F0030400EC031D
:101FE0000400E8030400E4030400E0030400DC034D
:101FF0000400D8030400D4030400D0030400CC037D
:102000000400C8030300C503030024F404D9201B03
:10201000C40C5C0E9804C4095F0265077101F405E5
:10202000F900FB04B30048048700C10369005803AA
:10203000550003034500BE023A00840231005302FA
:102040002A002902250004022000E4011C00C80126
:102050001900AF01170098011400840113007101E9
:1020600010006101100051010E0043010D00360106
:102070000B002B010B0020010B00150109000C01C6
:10208000090003010800FB000800F3000800EB0052
:102090000700E4000600DE000600D8000600D200BB
:1020A0000600CC000500C7000500C2000500BD0009
:1020B0000400B9000400B5000400B1000400AD0044
:1020C0000400A9000400A5000300A20003009F0073
:1020D00004009B0003009800030095000200930099
:1020E0000300900003008D0002008B0003008800B5
:1020F00002008600020084000300810002007F00CD
:1021000002007D0002007B000200790002007700DF
:1021100001007600020074000200720001007100EC
:1021200002006F0002006D0001006C0002006A00F6
:1021300001006900020067000100660001006500FF
:102140000100640002006200010061000100600003
:1021500001005F0002005D0001005C0001005B0007
:1021600001005A0001005900010058000100570009
:102170000100560001005500010054000100530009
:102180000000530001005200010051000100500006
:1021900001004F0001004E0000004E0001004D0004
:1021A00001004C0001004B0000004B0001004A0000
:1021B00001004900010048000000480001004700FC
:1021C00001004600000046000100450000004500F7
:1021D00001004400010043000000430001004200F0
:1021E00000004200010041000000410001004000E9
:1021F00001003F0000003F0001003E0000003E00E3
:1022000001003D0000003D0001003C0000003C00DA
:1022100000003C0001003B0000003B0001003A00D0
:1022200000003A00010039000000390001003800C8
:1022300000003800000038000100370000003700BF
:1022400001003600000036000000360001003500B5
:1022500000003500000035000100340000003400AB
:1022600000003400010033000000330000003300A0
:102270000100320000003200000032000100310095
:10228000000031000000310001003000000030008B
:102290000000300001002F0000002F0000002F0080
:1022A00000002F0001002E0000002E0000002E0074
:1022B00001002D0000002D0000002D0000002D0069
:1022C00001002C0000002C0000002C0000002C005D
:1022D00001002B0000002B0000002B0000002B0051
:1022E00001002A0000002A0000002A0000002A0045
:1022F0000100290000002900000029000000290039
:10230000000029000100280000002800000028002B
:10231000000028000000280001002700000027001E
:102320000000270000002700000027000100260011
:102330000000260000002600000026000000260005
:1023400001002500000025000000250000002500F8
:1023500000002500000025000100240000002400EA
:1023600000002400000024000000240001002300DD
:1023700000002300000023000000230000002300D1
:1023800000002300000023000100220000002200C2
:1023900000002200000022000000220000002200B5
:1023A00001002100000021000000210000002100A8
:1023B0000000210000002100000021000100200099
:1023C000000020000000200000002000000020008D
:1023D00000002000000020000000200001001F007D
:1023E00000001F0000001F0000001F0000001F0071
:1023F00000001F0000001F0001001E0000001E0062
:1024000000001E0000001E000000393000003325CF
:10241000000087190000B00F0000DB080000BD04B9
:102420000000740200003F010000486F6D696E6794
:10243000204661696C6564006F70656E0054524996
:102440004747455245440066696C616D656E74008E
:102450007A5F6D696E00795F6D696E00785F6D6996
:102460006E005265706F7274696E6720656E64737A
:10247000746F70207374617475730A00486F6D65B2
:102480002025732573257320466972737400576184
:10249000726E696E673A20486F6D696E672042758B
:1024A0006D702044697669736F72203C20310A0098
:1024B00000004842000048420000C0400202040000
:1024C00000A0400000A04000000040FFFFFF00000F
:1024D000000100000001000080005555550000007B
:1024E000400033333300AAAA2A0049922400000096
:1024F0002000C7711C0099991900D1451700555546
:1025000015003BB113002449120011111100000005
:1025100010000F0F0F00E3380E0043790D00CCCCF4
:102520000C00C3300C00E8A20B0064210B00AAAA27
:102530000A00703D0A009DD80900427B09009224E0
:102540000900DCD308008888080010420800000059
:102550000800F0C107008787070075500700711C4D
:1025600007003EEB0600A1BC060069900600666607
:102570000600703E06006118060017F4050074D1CD
:1025800005005BB00500B29005006272050055556C
:10259000050078390500B81E0500050505004EEC5C
:1025A000040087D40400A1BD040090A70400499250
:1025B0000400C17D0400EE690400C75604004444D1
:1025C00004005C32040008210400411004000000F3
:1025D00004003FF00300F8E0030026D20300C3C369
:1025E0000300CCB503003AA803000A9B0300388E11
:1025F0000300C08103009F750300D0690300505E93
:1026000003001D53030034480300913D030033339E
:10261000030016290300381F030097150300300C30
:102620000300030303000BFA020049F10200BAE8B9
:1026300002005CE002002DD802002DD0020059C833
:102640000200B0C0020031B90200DAB10200AAAA49
:102650000200A0A30200BC9C0200FA9502005C8F5D
:102660000200DF88020082820200457C0200277699
:10267000020027700200436A02007C640200D05E00
:1026800002003F590200C853020000000000000091
:1026900000600000000000FC00000FF000000000DF
:1026A00007E00000000001861FC018700000000055
:1026B00000603C0C000001830C6010300000000042
:1026C00000603C0C000001830C3030300000000042
:1026D0000060000C000000030C1830000000000037
:1026E0000060003F0F3C00030C0C6001DF0FE0FEB8
:1026F00000601C1C061800060C0C6000F3183183E7
:1027000000600C0C0318001E0C0C6000E0303983D4
:1027100000600C0C033000030C0C6000C030380F5C
:1027200000600C0C033000018C0C6000C03FF8FB13
:1027300000600C0C033000018C0C6030C030018351
:1027400000600C0C01F001818C0C6030C030018302
:1027500000600C0C00E001818C183030C01831830F
:1027600000600C0C40E001838C301860C00C618765
:10277000C0E01C0CC06000C30C600FC3F007C0FFBA
:10278000C7FC7F0781C0007E1FC000000000000062
:102790000000000007000000000000000000000032
:1027A000000000000700000000001FFFFFFFFFFF08
:1027B000FF600000000001FF400000000000FF80FB
:1027C00000000000007F83CF00000C303F87FF80B7
:1027D000000C301F867980000C000F8C30C7838C72
:1027E00030E78C30CFC7CC31F38C30DCECEC33B934
:1027F0008C30D86C6C33198C30D06C0C33198C3015
:10280000D86C0C33198C30DC6C0E3B198C30CF7CBF
:10281000079F198C30C77C038F194000000000000F
:1028200002600000000000061FFFFFFFFFFFF870BE
:10283000012C0190012701B0012201C0011D01F00E
:102840000118011002130130020E0160020901900B
:10285000020401C002FF000003FA004003F50080FB
:1028600003F000D003EB002004E6007004E100E078
:1028700004DC004005D700C005D2004006CD00D0E2
:1028800006C8008007C3003008BE00F008B900C0C9
:1028900009B400B00AAF00B00BAA00D00CA500002C
:1028A0000EA000500F9B00C0109600501291000027
:1028B000148C00C0158700B0178200B0197D00D0BD
:1028C0001B7800001E730040206E0090226900F00B
:1028D00024640040275F0090295A00E02B55001027
:1028E0002E500020304B0010324600E03341009063
:1028F000353C001037370070383200A0392D00B059
:102900003A2800A03B2300603C1E00103D190090B7
:102910003D1400103E0F00703E0A00C03E0500004E
:102920003F0000403FFBFF803FF6FFC03FF1FF68E4
:10293000747470733A2F2F6D61726C696E66772EA6
:102940006F726700322E302E37002020506C616E7F
:102950006E657242756666657242797465733A2077
:10296000002046726565204D656D6F72793A2000D2
:10297000436F6D70696C65643A204F637420203238
:1029800020323032300A00204C617374205570645C
:10299000617465643A20323032302D30392D32394D
:1029A000207C20417574686F723A20284D414B4558
:1029B000525320444556454C4F504D454E542047A8
:1029C000524F5550204C4C432C204D4447204352ED
:1029D0002D313056332F45334420544954414E2F26
:1029E000424C544F5543482F4455414C2D582F4489
:1029F00055414C2D592F4455414C2D5A290A00322E
:102A00002E302E370A004D61726C696E0020536FB4
:102A10006674776172652052657365740A00205789
:102A200061746368646F672052657365740A00207F
:102A300042726F776E206F75742052657365740AE9
:102A4000002045787465726E616C20526573657400
:102A50000A00506F77657255700A006175746F25B2
:102A6000632E67004732385859004D3130303100FD
:102A70006572726F722077726974696E6720746F05
:102A80002066696C650A00446F6E65207361766923
:102A90006E672066696C652E0A004D323900255339
:102AA00020256320256320256320256300656E644F
:102AB00073746F7073206869743A200000009B4340
:102AC00000009B430000C343FFFDFCFAF8F6F4F25C
:102AD000F0EEECEAE9E7E5E3E1E0DEDCDAD9D7D5D0
:102AE000D4D2D0CFCDCBCAC8C7C5C3C2C0BFBDBC6E
:102AF000BAB9B7B6B4B3B2B0AFADACAAA9A8A6A5DF
:102B0000A4A2A1A09E9D9C9A999897959493929027
:102B10008F8E8D8B8A8988878684838281807F7E51
:102B20007D7B7A797877767574737271706F6E6D5C
:102B30006C6B6A696867666564636261605F5E5D4D
:102B40005C5B5A5958585756555453525150504F30
:102B50004E4D4C4B4A4A49484746464544434242FB
:102B600041403F3E3E3D3C3B3B3A393838373635B5
:102B700035343332323130302F2E2E2D2C2B2B2A60
:102B800029292827272625252423232221212020FF
:102B90001F1E1E1D1C1C1B1B1A1919181817161690
:102BA000151514131312121111100F0F0E0E0D0D17
:102BB0000C0C0B0A0A090908080707060605050494
:102BC00004030302020100000000000000000000F6
:102BD0000000000053657474696E67732053746F4E
:102BE0007265640053657474696E67732053746F03
:102BF000726564202800456E636C6F7375726500A2
:102C000000FE0003FF8007C7C00701E00000E000EE
:102C100000F00000700400700E00701F00703F8014
:102C2000F00E00E00F01E007C7C003FF8000FE00C8
:102C300000FE0003FF8007C7C00F01E00E00E03F69
:102C400080F01F00700E0070040070000070000023
:102C5000F00000E00701E007C7C003FF8000FE00AE
:102C60000E000E000E000E000E000E000E000E00F4
:102C70007FC03F801F000E00040004000E001F00F4
:102C80003F807FC00E000E000E000E000E000E00F2
:102C90000E000E00FFFFFF7F80FFC0FFC0FFC07F60
:102CA000807F80FFC0FFC0FFC03F001E000C0049B6
:102CB0006E76616C69642065787472756465720AF9
:102CC0000048656174696E67204661696C656400DF
:102CD00048656174696E67206661696C6564004D62
:102CE0003131322053687574646F776E00202D2067
:102CF000496E76616C69642065787472756465727A
:102D0000206E756D62657220210A00544845524D4F
:102D1000414C2052554E4157415900546865726DDF
:102D2000616C2052756E61776179004572723A204C
:102D30004D415854454D50004D415854454D50203B
:102D4000747269676765726564004572723A204DF6
:102D5000494E54454D50004D494E54454D502074F8
:102D6000726967676572656400202F002042403AEF
:102D70000020403A0020573A007C3C3E5E2B3D3F0D
:102D80002F5B5D3B2C2A225C005654726176204DED
:102D9000696E00566D696E00566D6178204500566B
:102DA0006D6178205A00566D6178205900566D612A
:102DB00078205800416D6178204500416D61782090
:102DC0005A00416D6178205900416D6178205800AA
:102DD000412D54726176656C00412D5265747261AB
:102DE000637400416363656C0056652D4A65726BC0
:102DF00000565A2D4A65726B0056592D4A65726B02
:102E00000056582D4A65726B0050726F62652059EA
:102E1000204F66667365740050726F62652058209B
:102E20004F6666736574005072696E7420506175E8
:102E30007365640020746F6F206C6F6E6720657817
:102E400074727573696F6E2070726576656E7465E5
:102E5000640A0020636F6C6420657874727573690E
:102E60006F6E2070726576656E7465640A006265C7
:102E700067696E00627574746F6E00436F6E74697B
:102E80006E7565004C6F61642046696C616D656E9E
:102E900074205400496E736572742066696C616DAC
:102EA000656E7420616E642073656E64204D3130F0
:102EB000380A00220A00556E6B6E6F776E20636FC2
:102EC0006D6D616E643A2022004D44472043522DBF
:102ED00031302056332052656164792E005072697A
:102EE0006E74696E672E2E2E00205A3A0020593AD1
:102EF00000436F6E66696775726174696F6E004337
:102F0000616E63656C204F626A6563740043616E35
:102F100063656C004F6666004F6E004D6F74696F9D
:102F20006E004368616E6765204D65646961004DA0
:102F300032310041626F7574205072696E7465722F
:102F400000526573756D65205072696E74004E6F26
:102F5000204D656469610054756E650053746F702F
:102F6000205072696E7400506175736520507269EB
:102F70006E7400496E666F2053637265656E005310
:102F800074617274205072696E740043616E6E6F6A
:102F90007420656E746572207375626469723A207C
:102FA00000022E2E00536F667420456E6473746F9A
:102FB0007073004D3834004175746F20486F6D6533
:102FC0000054656D70657261747572650050726F42
:102FD0006265205A204F6666736574004D61696EA4
:102FE0000044697361626C6520537465707065722A
:102FF00073004D34382050726F62652054657374CD
:1030000000473238204F0A4D3438205031300048C4
:103010006F6D65205A004732385A00486F6D652041
:1030200059004732385900486F6D652058004732C3
:103030003858004732380050726568656174202442
:1030400020456E64005072656865617420242042DA
:10305000656400436F6F6C646F776E0046616E202D
:103060005370656564207E00466C6F77002053695D
:103070007A653A200043616E6E6F74206F70656EE2
:10308000207375626469722000534420496E69742C
:10309000204661696C0053442063617264206F6B49
:1030A0000A006F70656E526F6F74206661696C659F
:1030B000640A00766F6C756D652E696E69742066A2
:1030C00061696C65640A004E6F205344206361722D
:1030D000640A004D3233202573006F70656E2066E0
:1030E00061696C65642C2046696C653A200046690C
:1030F0006C652073656C65637465640A0046696C71
:1031000065206F70656E65643A2000454E4420531B
:103110005542524F5554494E450A002220706F7354
:10312000002220706172656E743A2200535542523B
:103130004F5554494E452043414C4C2074617267B1
:1031400065743A220053756263616C6C204F76653A
:1031500072666C6F77004578636565646564206DA1
:10316000617820535542524F5554494E452064656D
:103170007074683A310A0057726974696E67207416
:103180006F2066696C653A20005344207072696E46
:1031900074696E67206279746520004E6F742053E5
:1031A00044207072696E74696E670A006672657396
:1031B0006800646F696E67004E6F77200020627947
:1031C0007465733B2063726320004E6F2045455049
:1031D000524F4D2E0A00205200454550524F4D206F
:1031E0006461746173697A65206572726F722E0A08
:1031F000002073746F7265642073657474696E6700
:1032000073207265747269657665642028002028D1
:1032100063616C63756C6174656429210A00202107
:103220003D2000454550524F4D20435243206D698B
:10323000736D61746368202D202873746F726564E8
:10324000292000496E6465783A2000204D61726C37
:10325000696E3D563831290A00454550524F4D2080
:1032600076657273696F6E206D69736D61746368E2
:103270002028454550524F4D3D0048617264636FB0
:103280006465642044656661756C7420536574746C
:10329000696E6773204C6F616465640A003B2000AF
:1032A00020204D363033200020204D343132205341
:1032B0000046696C616D656E742072756E6F757411
:1032C0002073656E736F723A0020550046696C6119
:1032D0006D656E74206C6F61642F756E6C6F6164C8
:1032E000206C656E677468733A0020204D38353164
:1032F0002058005A2D50726F6265204F66667365C4
:10330000740020204D33303420500020204D3330C5
:10331000312050005049442073657474696E67739E
:103320003A0020460020480020204D3134352053FB
:10333000004D6174657269616C20686561747570B7
:1033400020706172616D65746572733A00204A0085
:103350002020473239205720490020204D34323078
:103360002053004175746F20426564204C6576657A
:103370006C696E673A0020204D32303520420041A2
:103380006476616E6365643A20423C6D696E5F737A
:1033900065676D656E745F74696D655F75733E20FA
:1033A000533C6D696E5F66656564726174653E204D
:1033B000543C6D696E5F74726176656C5F666565BD
:1033C00064726174653E20583C6D61785F785F6A15
:1033D00065726B3E20593C6D61785F795F6A6572FA
:1033E0006B3E205A3C6D61785F7A5F6A65726B3E16
:1033F00020453C6D61785F655F6A65726B3E0020B9
:10340000204D323034205000416363656C65726139
:1034100074696F6E2028756E6974732F7332293A40
:1034200020503C7072696E745F616363656C3E200E
:10343000523C726574726163745F616363656C3E74
:1034400020543C74726176656C5F616363656C3EA9
:103450000020204D3230312058004D6178696D7563
:103460006D20416363656C65726174696F6E2028BD
:10347000756E6974732F7332293A0020204D3230F3
:10348000332058004D6178696D756D2066656564FF
:1034900072617465732028756E6974732F73293A8D
:1034A0000053746570732070657220756E69743A8C
:1034B0000020440020204D32303020530020446949
:1034C0007361626C65640A0046696C616D656E7457
:1034D0002073657474696E67733A0020204D31342F
:1034E000392043203B20556E69747320696E204358
:1034F000656C736975730A0020286D6D29002020A2
:10350000473231202020203B20556E69747320699A
:103510006E206D6D0000007A4400803B440000F096
:10352000410000F0420000A0420000A0420000C89C
:1035300043EC11BF43D0070000D007000020030078
:103540000088130000446966663A20202000467215
:103550006F6D5374703A00537465707065723A0001
:10356000556E4C6576656C3A004C6576656C6564A5
:103570003A005261773A20202020000A4C6F676998
:1035800063616C3A00436F756E7420453A00436185
:10359000703A004348414D4245525F54454D5045B5
:1035A000524154555245004241425953544550509E
:1035B000494E470041524353004D4F54494F4E5FCF
:1035C0004D4F44455300544845524D414C5F505275
:1035D0004F54454354494F4E004C4F4E475F464968
:1035E0004C454E414D45004155544F5245504F5268
:1035F000545F53445F535441545553005344434123
:1036000052440050524F4D50545F535550504F52FA
:103610005400454D455247454E43595F5041525322
:10362000455200434153455F4C494748545F42521D
:10363000494748544E45535300544F47474C455F04
:103640004C494748545300534F4654574152455FE5
:10365000504F574552004255494C445F50455243E4
:10366000454E54004C4556454C494E475F444154E5
:1036700041005A5F50524F4245004155544F4C450E
:1036800056454C005052494E545F4A4F42005052EA
:103690004F4752455353004155544F5245504F5296
:1036A000545F54454D5000564F4C554D455452496A
:1036B000430042494E4152595F46494C455F54527E
:1036C000414E534645520053455249414C5F584F75
:1036D0004E5F584F4646004649524D574152455F4E
:1036E0004E414D453A4D61726C696E20322E302E3E
:1036F0003720284F6374202032203230323020307F
:10370000303A34313A31352920534F555243455FD1
:10371000434F44455F55524C3A68747470733A2F66
:103720002F6769746875622E636F6D2F4D61726CBF
:10373000696E4669726D776172652F4D61726C6951
:103740006E2050524F544F434F4C5F564552534991
:103750004F4E3A312E30204D414348494E455F543B
:103760005950453A4D44472043522D31302056336D
:103770002045585452554445525F434F554E543A94
:103780003120555549443A63656465326132662D8E
:10379000343161322D343734382D396231322D6372
:1037A00035356336326633363766660A0050726FD7
:1037B0006265204F6666736574205A003F5A206F19
:1037C0007574206F662072616E67652028003F590E
:1037D000206F7574206F662072616E676520282DDA
:1037E0000020746F20003F58206F7574206F662092
:1037F00072616E676520282D0050726F6265204FE0
:103800006666736574205800656E717565756569C7
:103810006E672022006F6B00526573656E643A20FC
:103820000050726F62696E6720506F696E74002578
:10383000532025692F25690050726F62696E6720D9
:103840006D65736820706F696E7420002028445283
:103850005952554E2900473239204175746F204224
:103860006564204C6576656C696E67003F20284C66
:103870002C522C462C4229206F7574206F662062D2
:103880006F756E64732E0A003F2856296572626F49
:103890007365206C6576656C20696D706C617573FD
:1038A00069626C652028302D34292E0A004261643B
:1038B000205A2076616C75650A004E6F2062696C33
:1038C000696E65617220677269640A004465766991
:1038D0006174696F6E0025533A2025730046696E46
:1038E0006973686564210A003A207A3A2000206FE3
:1038F000662000476F696E6720746F3A2058004356
:10390000570A00206469723A0020616E676C653A5C
:10391000005374617274207261646975733A004D6A
:10392000343820506F696E740025533A2025642F77
:10393000256400506F736974696F6E696E672074D7
:1039400068652070726F62652E2E2E0A003F4C65EE
:103950006773206F66206D6F76656D656E74206984
:103960006D706C61757369626C652028302D31351E
:10397000292E0A003F2028582C5929206F757420C1
:103980006F6620626F756E64732E0A0050726F62EC
:1039900065206F7574206F6620626F756E647300AA
:1039A0003F53616D706C652073697A65206E6F742A
:1039B00020706C61757369626C652028342D353018
:1039C000292E0A004D3438205A2D50726F6265201E
:1039D0005265706561746162696C697479205465BF
:1039E00073740A005374616E646172642044657676
:1039F000696174696F6E3A20002052616E67653AA2
:103A00002000205369676D613A20004D65616E3A70
:103A10002000416363656C65726174696F6E3A2062
:103A200050005741524E494E4721204C6F77205A43
:103A3000204A65726B206D6179206C656164207429
:103A40006F20756E77616E74656420706175736543
:103A5000732E0A00204D393220580020204D617805
:103A60003A200020204D696E3A2000536F66742082
:103A7000656E6473746F70733A2000496E76616C82
:103A800069642050696E204D6F64650A0020496E9C
:103A900076616C6964206578747275646572200063
:103AA0003F00496E697469616C697A6520454550CB
:103AB000524F4D006E6F74696669636174696F6E11
:103AC000200063616E63656C005072696E74204102
:103AD000626F72746564004469736D697373005535
:103AE000492041626F72746564004D323520500A7E
:103AF0004D323400526573756D6500554920506133
:103B00007573650050617573696E672E2E2E007295
:103B10006573756D6500454550524F4D2056657271
:103B200073696F6E204572726F7200454550524F37
:103B30004D20496E646578204572726F720045456C
:103B400050524F4D20435243204572726F720049CC
:103B5000676E6F7265001FE020102010201010208B
:103B600010202010201030300840048003001FE097
:103B70003FF03FF03FF01FE01FE03FF03FF03FF02D
:103B80000FC0078003003FFFF038007030FC30208A
:103B9000FC102078102030102C00D02E31D02F7B3C
:103BA000D02F7BD02E31D02C00D020301020781098
:103BB00020FC1030FC303800703FFFF03FFFF03841
:103BC00000703186302387102787902F87D02F03EE
:103BD000D02030102078102078102030102F03D003
:103BE0002F87D02787902387103186303800703F89
:103BF000FFF01FFFF81FFFF8041040020820020822
:103C0000200410400820801041001041000820804E
:103C10000410400000001FFFF81FFFF800FBF00039
:103C20000001D9B8E3800389B9E7C00381F0C6C0B9
:103C300003C1B8C6C001FBB8E7C000FBDFF38000DA
:103C40000000000000000000000003CE00000001A2
:103C5000C8F0000001D9F0000000F070000000F092
:103C60006000000060F800000061F8002568753A07
:103C700025303268750025303268753A2530326853
:103C8000750020202020202020004C6F61642053EC
:103C9000657474696E67730053746F726520536541
:103CA0007474696E677300416476616E6365642045
:103CB00053657474696E6773004E4F005945530025
:103CC00043616E63656C204F626A656374203D00DA
:103CD00053746F770053572D4D6F646500446570C2
:103CE0006C6F790053656C662D5465737400466182
:103CF0006E20537065656400526573746F72652041
:103D000044656661756C74730050726568656174B2
:103D1000202420436F6E6600424C546F7563680028
:103D20005045544700504C41005072696E742066F3
:103D3000726F6D204D656469610050726F62696ECB
:103D400067204661696C656400205A3A200020595A
:103D50003A200042656420583A20004368616E674B
:103D6000652046696C616D656E7400556E6C6F619F
:103D7000642046696C616D656E74004C6F616420EF
:103D800046696C616D656E7400507265686561743A
:103D900020437573746F6D0050726568656174209F
:103DA00024004261636B00253D203D00002100247A
:103DB0000027002A002D003000330001010000041C
:103DC0000107010A0100002200250028002B002E17
:103DD000003100340002010000050108010B010060
:103DE0000020002300260029002C002F00320000B4
:103DF0000100000301060109010505050507050885
:103E0000080808020202020A0A080804040404015D
:103E1000010101010101010303030303030303047F
:103E20000707070C0C0C0C0C0C0C0C02020202060F
:103E3000060606060606060B0B0B0B0B0B0B0B01FF
:103E400002102020080810204010204080020102AB
:103E50000108040201010204081020408080402073
:103E600010080402018004020180402010080402AE
:103E7000010804020101020408102040800102042C
:103E8000081020408000000A0B02090C0D0E0807E4
:103E9000030401000000000000000000000000001A
:103EA0000000000000000000000000000000000012
:103EB00000121110000000000000000000000000CF
:103EC00000000000000000000000004D6F7665203B
:103ED00025736D6D004D6F766520302E316D6D0050
:103EE0004D6F766520316D6D004D6F7665203130F8
:103EF0006D6D004D6F7665204178697300486F7471
:103F0000656E6420746F6F20636F6C640045787415
:103F10007275646572004D6F7665205A004D6F763C
:103F2000652059004D6F76652058004F46460A00BF
:103F3000466164652048656967687420004265646D
:103F4000204C6576656C696E6720004661696C651A
:103F50006420746F20656E61626C65204265642028
:103F60004C6576656C696E670A00496E76616C69AE
:103F700064206D6573682E0A0020436F756E74208F
:103F8000583A00453100626564002C2073797374DF
:103F9000656D2073746F707065642120486561746D
:103FA00065725F49443A20000F02430111241FBE8D
:103FB000CFEFD1E2DEBFCDBF00E00CBF13E0A0E049
:103FC000B2E0ECE0F9ED02E00BBF02C007900D9209
:103FD000A431B107D9F726E1A4E1B3E001C01D92F5
:103FE000AA3FB207E1F71FE1C5EDDFE100E006C03F
:103FF00021970109802FFE010F94D768C43DD10796
:1040000080E00807A9F70F94B8520D94746C0C94D3
:1040100000002F923F924F925F926F927F928F9209
:104020009F92AF92BF92CF92DF92EF92FF920F9347
:104030001F93CF93DF93CDB7DEB7E7970FB6F89412
:10404000DEBF0FBECDBF8EAB209154072CAB11E06D
:10405000109354078091510F8D3409F44CC384356B
:1040600011F40C94DE30873411F00C94F030809110
:104070004F0F9091500F8B31910509F41BC1B4F48F
:104080008430910534F482309105E4F597FF2EC019
:104090002EC38531910511F40C94F2308A319105CB
:1040A00009F404C1049709F022C3C1C08A32910502
:1040B00009F43DC24CF48D319105B1F00CF415C1F9
:1040C0004E9709F45EC113C38B35910509F4D8C12D
:1040D0008C35910509F4D9C18A35910509F007C3DA
:1040E000109223030C94F23014E02DC180918C06C1
:1040F000813011F00C94F2300F94BC190E94CA97D1
:104100000C94F23020918C06213011F00C94F23096
:1041100011E0029709F010E00F94BC1919821A827D
:104120001B821C821D821E821F82188682E50E94CD
:10413000A745882309F44BC00E9427456B017C01E9
:1041400020E030E0A9010F94DC61882309F455C018
:104150008091A8079091A907A091AA07B091AB07F9
:1041600088A799A7AAA7BBA78091AC079091AD0794
:10417000A091AE07B091AF0788AB99ABAAABBBAB30
:1041800080909D1690909E16A0909F16B090A016BD
:104190004090A1165090A2166090A3167090A4169D
:1041A000A501940168A579A58AA59BA50F94DC615A
:1041B00081110C94FB30A301920168A979A98AA905
:1041C0009BA90F94DC618823C1F00C94FB3089E437
:1041D0000E94A745882331F00E94274569837A838E
:1041E0008B839C838AE40E94A745882331F00E9438
:1041F00027456D837E838F83988720E030E0A90177
:1042000069817A818B819C810F94DC6181110C948E
:10421000AF3120E030E0A9016D817E818F819885EA
:104220000F94DC6181110C94AF310C94D73180E58F
:104230000E94A745882329F00F94BE106B017C01D2
:1042400003C0C12CD12C760183E50E94A7458823A9
:1042500061F00E94274520E030E04AE754E40F94E3
:1042600042620F94536A6B017C010E944AA78091BD
:10427000E30F811105C060E086E297E00F94942778
:104280000F945549C60ED71EE81EF91E0F945549C6
:10429000DC01CB018C199D09AE09BF09B7FD02C035
:1042A0000C94F23080E00E94CF39F0CF0E94D845C4
:1042B0000C94F23087E00E94E99681110C94F23060
:1042C0008CE0EBE8F2E0DE01119601900D928A9508
:1042D000E1F760E070E080E50F94A81EBE016F5F1B
:1042E0007F4F0F9450260C94F2308091A204877077
:1042F000873011F00C94DE3160E08FE40E94C345FA
:1043000081110C94F2300C94DE3180912F0F8111C9
:104310002AC00F94E314882361F1115011F40C9416
:10432000BF3320E030E047ED5AE36EE877E085E008
:104330000E94425A61E081E897E00E94EF5982E5CD
:1043400097E00F94B10F0F94554960930307709352
:104350000407809305079093060787E00E94E9967B
:10436000882399F206C060E08FE40E94C345882349
:1043700081F20E94075A8DE198E00F94B10F0C94DE
:10438000F2302091AF163091B0164091B116509195
:10439000B2166091A8077091A9078091AA07909121
:1043A000AB070F94E068AB01BC0188E50E94036491
:1043B00069837A838B839C832091B3163091B416E2
:1043C0004091B5165091B6166091AC077091AD074B
:1043D0008091AE079091AF070F94E068AB01BC01EC
:1043E00089E50E9403646D837E838F839887BE0175
:1043F0006B5F7F4FCE0101960F94094C882311F417
:104400000C94F23080E00E9495550E94A29A61E0DF
:1044100085E40E94C345182F21E0482FBE016B5F41
:104420007F4FCE0101960F94AE406B017C019B0142
:10443000AC010F94D26B811119C049815A816B81F3
:104440007C8183E59DE30E942A5B4D815E816F81C3
:1044500078858EE49DE30E942A5BB701A60189E47A
:104460009DE30E942A5B8AE00E94A3380E94899AF9
:10447000113011F40F94C9140E94F29C0C94F23084
:104480008FE0809323030C94F230B2EDCB2EB2E098
:10449000DB2E18EAE12E17E0F12E00E0312C10E0BF
:1044A000D6018D916D010E94A745882359F10E9484
:1044B00027454B015C01F701208131814281538105
:1044C0000F94DF682B013C012DEB37E346E855EBF9
:1044D0000F94406B87FD0AC02DEB37E346E855E3A8
:1044E000C301B2010F94DC61181664F4133011F4A7
:1044F00001E002C033243394D7018D929D92AD9296
:10450000BC9213971F5FB4E0EB0EF11C143041F620
:10451000332019F00E94F09C06C0002321F084EBA8
:1045200097E00E945BA70E94F29C0C94F23080916D
:104530008C06813011F00C94F23089E40E94A7457A
:10454000E82E882321F00E942345082F01C000E0B7
:104550008AE40E94A745F82E882321F00E94234573
:10456000182F01C010E0EE2011F0053020F4FF20DC
:1045700041F0153030F085E398E00E94E0590C944A
:10458000F23080E1E8EAF7E0ADE9B6E101900D92A2
:104590008A95E1F7EE2019F1602F000F770B880B59
:1045A000990B0F94E3612091AB0E3091AC0E4091CA
:1045B000AD0E5091AE0E0F94426220919D0E30913F
:1045C0009E0E40919F0E5091A00E0F94E068609354
:1045D0009D1670939E1680939F169093A016FF20B1
:1045E00019F1612F110F770B880B990B0F94E36171
:1045F0002091AF0E3091B00E4091B10E5091B20E9D
:104600000F9442622091A10E3091A20E4091A30E10
:104610005091A40E0F94E0686093A1167093A216B7
:104620008093A3169093A41660E080E50E94C34592
:104630008823C1F1EE20D1F02091AF163091B01651
:104640004091B1165091B21660919D1670919E16D0
:1046500080919F169091A0160F94DF6860939D162D
:1046600070939E1680939F169093A016FF20D1F012
:104670002091B3163091B4164091B5165091B616EC
:104680006091A1167091A2168091A3169091A41624
:104690000F94DF686093A1167093A2168093A316FF
:1046A0009093A41640E050E0BA0186E40E940364AF
:1046B0006B017C0120E030E0A9010F94406B1816DB
:1046C0004CF420E030E040E752E4C701B6010F941B
:1046D000DA6903C060E070E0CB0169837A838B8381
:1046E0009C83CE0101960E94C39B0C94F2300E94E1
:1046F00034E10C94F23080914F0F9091500F873736
:10470000910509F4B7C70CF01FC18C34910509F469
:104710005BC40CF09CC08A31910509F418C3BCF548
:104720008431910509F48CC27CF48131910509F43E
:1047300073C22CF4029708F425C20C94DB30429724
:1047400009F48EC60C94DB308731910509F4ADC2B3
:1047500094F48531910509F4A4C2469711F00C94A4
:10476000DB300E9464F680912E15877F80628093F3
:104770002E150C94F2308831910509F4ADC2499799
:1047800011F00C94DB300F94E31D0C94F230803266
:10479000910509F4BBC3ECF58D31910509F44CC3C7
:1047A00084F48B31910509F4E0C24C9711F00C941C
:1047B000DB3080913104909132040E94A3F90C9473
:1047C000F2308E31910509F43EC34F9711F00C94ED
:1047D000DB300E94ED9D6C8F7D8F8E8F9F8FBE0191
:1047E0006F5F7F4FCE014C960E94886960E0CE01DA
:1047F00001960F944B280E942B5CBE016F5F7F4F88
:104800008FEE98E00E94485B8AE00E94A3380C94E7
:10481000F2308033910509F4C0C364F4813291050C
:1048200009F4A9C38A9711F00C94DB300F94BB1ED6
:104830000C94F2308934910509F4B3C38B3491059B
:1048400011F00C94DB300E947E360C94F2308A36E4
:10485000910509F4B8C4ACF58335910509F4F9C59F
:10486000BCF48E34910509F4B7C30CF4B1C381359F
:10487000910509F4D8C58235910511F00C94DB300F
:10488000809123038F7D8061809323030C94F23009
:104890008C35910509F40AC654F48435910509F460
:1048A000DFC58535910509F4DEC50C94DB3088360B
:1048B000910509F423C48936910509F470C40C9458
:1048C000DB308037910511F40C94F230D4F48D363E
:1048D000910509F43AC45CF48B36910509F4B6C429
:1048E0008C36910511F40C94F2300C94DB308E363A
:1048F000910509F4B8C48F36910509F4C5C40C9428
:10490000DB308337910509F46FC66CF4813791056C
:1049100009F4FFC48237910511F00C94DB300F9439
:10492000400E0C94F2308537910509F460C6863745
:10493000910511F00C94DB30009131041091320498
:1049400094E0F12C40E07AC68033E1E09E0711F458
:104950000C944A2E0CF079C08C3C910509F49CC74C
:1049600074F58139910509F497C684F48937910566
:1049700009F48BC60CF481C68D37910509F450C536
:104980008C38910509F4E7C40C94DB30883C910520
:1049900009F4F6C654F48B39910509F41BC58E3B16
:1049A000910509F4F7C40C94DB30893C910509F4B6
:1049B0002EC78B3C910509F450C70C94DB3088312D
:1049C00021E0920711F40C941B2DE4F48C3D910529
:1049D00009F468C76CF48D3C910509F460C7833D08
:1049E000910511F00C94DB300F941D1F0C94F230E4
:1049F0008D3D910509F47DC7823E910509F4CFC72D
:104A00000C94DB308D32A1E09A0711F40C94CA2D7E
:104A10006CF48232E1E09E0711F40C94B22D8C32DA
:104A2000914011F40C94B52D0C94DB308E3221E0C2
:104A3000920711F40C94BD2E8F32914011F00C941A
:104A4000DB300E941A640C94F230873FA1E09A0791
:104A500011F40C940A300CF04BC0843AE1E09E074C
:104A600011F40C94202F0CF5823921E0920711F4F7
:104A70000C940E2F6CF48039A1E09A0711F40C9479
:104A8000012F8139914011F40C94042F0C94DB30E8
:104A90008A39E1E09E0711F40C94F2308C39914090
:104AA00011F40C94152F0C94DB30843F21E0920715
:104AB00011F40C9404306CF4853AA1E09A0711F4D7
:104AC0000C94232F863E914011F40C94982F0C9453
:104AD000DB30853FE1E09E0711F40C940730863F00
:104AE000914011F00C94DB300E9422FB0C94F230C8
:104AF0008E3B22E0920711F40C94AA301CF5883505
:104B0000A2E09A0711F40C9430306CF4883FE1E095
:104B10009E0711F40C9412308C30924011F40C94D6
:104B200023300C94DB308B3522E0920711F40C9487
:104B300033308D3B924011F00C94DB300F949E1B70
:104B40000C94F230803AA3E09A0709F418C26CF48E
:104B50008335E3E09E0711F40C94AD308C3693401E
:104B600011F40C94F2300C94DB30873E23E0920772
:104B700011F40C94B030893E934011F40C94BE3083
:104B80000C94DB3080E50E94A745882329F00F9420
:104B9000BE106B017C0103C0C12CD12C760183E5D2
:104BA0000E94A745882361F00E94274520E030E05D
:104BB0004AE754E40F9442620F94536A6B017C01FC
:104BC0000E944AA78091310490913204009721F00D
:104BD00061E00F944B2805C060E08EE598E00F94EB
:104BE000942780914F0F9091500F892B19F066E513
:104BF00078E002C06EE478E020E030E04BE75EE26F
:104C000082E00E94425A40E0C701B6010E945F4024
:104C10000E9411E10C94F2308091520F84FF02C087
:104C20000C94D5338091540F87FF02C00C94D53378
:104C30008091550F837011F00C94D5330C94F1339F
:104C400080912E1583FF25C089E898E00E94E059E5
:104C500080912E1583FF17C082E193E10E941AC450
:104C60008BE1E2E1F3E1DE01119601900D928A956C
:104C7000E1F760E070E0CE0101960E9446F8CE01B7
:104C800001960E947CC58AE798E00E94E0590C9446
:104C9000F2300E942B5C8AE998E00E94E0590C9463
:104CA000F2300E9423F70C94F230E0913104F0913D
:104CB00032048081882329F0803209F410823196F1
:104CC000F8CF60E080913104909132040E94EDF9B8
:104CD000109252100C94F2308091060E8823F9F055
:104CE00080E090E0A0EAB1E488A399A3AAA3BBA3C3
:104CF0001C8E1D8E1E8E1F8E19821A821B821C8294
:104D000000E010E020E0AE01405E5F4FBE01645E57
:104D10007F4FCE0101960E9455510C94F2300E94B3
:104D20005A36882321F00E9475F60E947E3661E093
:104D30008FE09BE30E94EF5947ED5AE364EA78E085
:104D400085E00E9438E20E9411E10C94F2308091DB
:104D50002E1583FD02C00C94F23083E50E94A74516
:104D600081110C94FF330C94F23083E40E945E4571
:104D70008823C1F18AEB98E00E94E0598091BC122F
:104D8000882339F1BE016F5F7F4F89EB92E10E946A
:104D900082C58E010F5F1F4FD8018D918D01882331
:104DA00019F00E94A338F8CFCE0101960E9475F940
:104DB00080916507882389F080E20E94A33805E688
:104DC00017E0F80181918F01882339F00E94A33800
:104DD000F8CF80EB98E00E94E0598AE00E94A33867
:104DE0000C94F23083E50E94A745882309F10E94C4
:104DF000FF44182F90E0CD970CF01CE3109318039C
:104E00000F9455496B017C01212F30E0A8EEB3E0EF
:104E10000F948668C60ED71EE81EF91EC0921403B2
:104E2000D0921503E0921603F09217030C94F2301F
:104E30000E9434F60C94F23080912E158E7F809370
:104E40002E150C94F23080912E1583FD02C00C9427
:104E5000F2300E9441E280912E1583FD02C00C9435
:104E6000F2304091310450913204BE01645E7F4FB4
:104E700080E00F94BE3E8C01009711F40C94F23048
:104E80006C8D7D8D19821C8222E0AC01CE010196D1
:104E90000E9440C9811102C0F12C14C0CE010196BC
:104EA0000F942C3E8823C1F361E0CE0101960E944D
:104EB00024C5009789F325EEDC012C931C820E9407
:104EC000D3C0F82ECE0101960E947CC5B801FF2008
:104ED00099F081EE98E00E94485B8AE00E94A33836
:104EE00010922A1510922B1510922C1510922D1538
:104EF0000E94E7F40C94F23089EC98E00E94485B41
:104F000081EC99E30E94E0590C94F23080912E15C7
:104F100082FD0E944AA780912E1583FD02C00C9449
:104F2000F23060E080E50E94C345182F682F809121
:104F30003104909132040E94EDF983E50E94A74567
:104F4000882381F00E94EF44AB01BC0140932A15F5
:104F500050932B1560932C1570932D1589EB92E1CE
:104F60000E9483C30E9475F611110C94F2300E94C6
:104F70007E360C94F2300E94676A0C94F2302091D5
:104F800031043091320490912E15926090932E1539
:104F9000C9010E94A3F90C94F2300F94DD100C9417
:104FA000F23080E50E945E45882311F40C94F230C3
:104FB0000E94FF4490E08536910510F084E690E071
:104FC000809352100C94F2300E943C9E0C94F2306C
:104FD0000E946DA40C94F23060E070E083E50E94C2
:104FE000B4458E34910531F40E94DEA40E9411E193
:104FF0000C94F23082E599E00E94E0596091B2048D
:105000007091B30489E499E00E941D5B6091B4043F
:105010007091B5048CE399E00E941D5B6091B2042D
:105020007091B3048091B4049091B504681B790B1E
:105030008091A707815021E030E0823010F020E01D
:1050400030E0621B730B81E399E00E941D5B8AE0F4
:105050000E94A33882E599E00E94E0598091B6044D
:105060009091B704A091B804B091B9048C8F9D8F32
:10507000AE8FBF8FBE016F5F7F4FCE014C960E94F7
:105080008869BE016F5F7F4F84E299E00E94485BB0
:105090008091BA049091BB04A091BC04B091BD046E
:1050A0008C8F9D8FAE8FBF8FBE016F5F7F4FCE0104
:1050B0004C960E948869BE016F5F7F4F84E199E042
:1050C0000E94485B20E030E04AE754E46091BE046F
:1050D0007091BF048091C0049091C1040F94DA696B
:1050E000AB01BC018CEF98E00E942A5B8DE60E9428
:1050F000A3388AE00E94A3380C94F2308091B60D58
:1051000083FF02C00C94F2300F94921A87FF02C002
:105110000C94F23089E40E94A745882311F40C9482
:1051200010340E94FF4490E01816190614F481E030
:1051300090E026E0289FF001299FF00D1124E5540E
:10514000F14F808191810C941A348091B60D83FFC8
:1051500002C00C94F2300F94921AF82E87FF02C00E
:105160000C94F23089E40E94A745082F882311F49B
:105170000C9423340E94FF4490E01816190614F48E
:1051800081E090E026E0289FF001299FF00D112496
:10519000E554F14F8081918110E00C9433340F94E9
:1051A000921A182F87FD0AC085E198E30E94E05902
:1051B000812F0E9467B48AE00E94A338BCA9B093F3
:1051C00054070C94283560E080E50F94B84DF82E14
:1051D000E1E0E81710F40C94F23081E40E945E459F
:1051E000882329F06091E007062F10E002C00FEF3E
:1051F00010E089E40E94A745882399F00E94FF44AB
:1052000090E01816190614F481E090E026E0289F3B
:10521000F001299FF00D1124E554F14F048115810F
:1052200008C083E50E94A745882319F00E94EF4437
:105230008B01EF2DF0E0E052F84FB8010F3F110560
:1052400019F010F06FEF70E06083CCC760E080E58C
:105250000F94B84D823008F0C5C7E82FF0E0E05257
:10526000F84F1082BFC78EE40E94A745882309F437
:10527000B9C70E94EF4460932D0470932E0480936D
:105280002F0490933004AEC783E50E945E458823C7
:1052900031F060E083E50F94B84D8093B60D0E9425
:1052A0002B5C8FE599E00E94E0598091B60D882330
:1052B00069F1A6E9EA2EAAE0FA2E00E010E020E06B
:1052C0008091B60D90E0A0E0B0E0002E04C0B6954D
:1052D000A795979587950A94D2F780FF0EC0DD2495
:1052E000D394D20E222319F08CE20E94A338F70146
:1052F000859194910E94E0592D2D0F5F1F4FF2E090
:10530000EF0EF11C05301105D9F667CD84E59FE05D
:1053100062CD83E50E94A745882371F00E94FF4477
:10532000282F30E02D3331051CF4809300025AC73A
:105330008CE38093000256C70E942B5C40910002D0
:1053400050E060E070E086E699E00E940C5B8AE045
:105350000E94A33847C78091B60D83FD43C789E4F7
:105360000E94A745882311F40C947D340E94FF44C9
:1053700090E01816190614F481E090E026E0289FCA
:10538000F001299FF00D1124E554F14F82819381A2
:105390000C9488348091B60D83FD24C789E40E9463
:1053A000A745882311F40C948F340E94FF4490E0A9
:1053B0001816190614F481E090E026E0289FF00109
:1053C000299FF00D1124E554F14F8281938110E063
:1053D0000C94A03483E50E94A745882309F402C7F2
:1053E0000E94FF44182F90E0CD970CF01CE310931F
:1053F0001D030F9455496B017C01212F30E0A8EE6D
:10540000B3E00F948668C60ED71EE81EF91EC09240
:105410001903D0921A03E0921B03F0921C03E2C618
:105420000F94E31DDFC60E94C6B90E946DA40E94BE
:10543000BAA80E94913668EE73E080E090E00E9486
:1054400020590E94963660E08BE899E00F949427EB
:10545000C9C6809123038F7E806280932303C2C6D6
:105460000F94D61FBFC683E50E945E45882309F4CA
:10547000B9C60F945549609303077093040780934E
:105480000507909306070E94274520E030E04AE791
:1054900054E40F9442620F94536A60931E03709316
:1054A0001F0380932003909321039CC60F94921AAC
:1054B00087FD98C69091520F94FD04C09091540FAF
:1054C00097FF0AC0E2EDCE2EE2E0DE2EF7EBEF2EE4
:1054D000FDE0FF2E10E009C09091550F937091F7F9
:1054E000682F81E00F9436207DC6D6018D916D0125
:1054F0000E94A745882309F46DC0133009F063C0EA
:105500000E9427454B015C0120E030E040EA51E475
:105510000F94DC6187FF4EC0A50194016091D70D07
:105520007091D80D8091D90D9091DA0D0F94DA69B0
:105530002B013C019B01AC016091C4077091C50730
:105540008091C6079091C7070F9442626093C40789
:105550007093C5078093C6079093C707A301920174
:105560006091E70D7091E80D8091E90D9091EA0D41
:105570000F9442626093E70D7093E80D8093E90DFC
:105580009093EA0D6091D4077091D5078091D6076A
:105590009091D7070F94E161A30192010F944262A9
:1055A0000F94536A6093D4077093D5078093D607FE
:1055B0009093D7078092D70D9092D80DA092D90DD5
:1055C000B092DA0D07C00E942745F701648B758BF6
:1055D000868B978B1F5FF4E0EF0EF11C143009F0FF
:1055E00084CF0E9465A6FEC50F94BF0DFBC58091B8
:1055F000310490913204009741F0DC012C91222378
:1056000021F060E00F944B28EDC50E9411E1EAC53E
:10561000F8018081282F2B7F213499F08035E9F41F
:10562000818180538A30C8F498012E5F3F4F8901F1
:105630002F5F3F4FF80180818032C9F3915041F7CD
:105640000CC02181213349F4813421F0853461F784
:1056500041E0EACFFF24F394E7CF41110E942B5C95
:10566000FF2021F08DE999E00E94E059C8010E94D5
:10567000AE39B8C50E94879DB5C581E08093C3044B
:105680008093C2040E94DE9DADC51092C3041092A7
:10569000C2040E94DE9DA6C560E070E083E50E9422
:1056A000B445823038F00E945B5B81EA99E00E9449
:1056B000E05998C58C01112788E40E94A7458823EA
:1056C000E1F00E9423458A3A910544F00E94234567
:1056D000813F910534F40E94234505C08AEA90E099
:1056E00002C080EF90E026E0209FF001219FF00DA6
:1056F0001124E554F14F9183808382E40E94A745F1
:105700008823D9F00E942345059744F00E94234541
:105710008F36910534F40E94234505C085E090E062
:1057200002C08EE690E026E0209FF001219FF00D60
:105730001124E554F14F9383828386E40E94A745A8
:10574000882309F44FC50E94234597FD09C00E9494
:1057500023458F3F910509F034F40E94234505C08D
:1057600080E090E002C08FEF90E026E0209FF00103
:10577000219FF00D1124E554F14F9583848332C5A8
:105780000F94921A182F87FD2DC50091340F84E4D1
:105790000E94A745882311F40C94C9340E94274520
:1057A0006B017C0120E030E0A9010F94DC618823CB
:1057B00041F124E01202F0011124E05DF04FC082BB
:1057C000D182E282F38220E030E0A9016091300FC3
:1057D0007091310F8091320F9091330F0F94DC61F3
:1057E00081110CC080E090E0A0EEBFE38093300F09
:1057F0009093310FA093320FB093330F01E00C94CC
:10580000C93480E08093340F0E943393EBC40F942B
:10581000921A87FDE7C462EDE62E62E0F62E07EBF2
:105820001DE077ECC72E7DE0D72ED7018D917D014D
:105830000E945E45882359F00E9427450F94536AC1
:10584000F80160837183828393830E941EA60C5F9C
:105850001F4FC016D10649F7C5C40F94921A87FD91
:10586000C1C452EDE52E52E0F52E07EB1DE0D70145
:105870008D917D010E945E45882339F00E94274565
:10588000F80164A375A386A397A30C5F1F4FFDE0E7
:10589000073C1F0761F7A6C40F94F520A3C40F941B
:1058A0007120A0C483E50E94A745882331F00E949F
:1058B000234590931C0280931B028091520F90917C
:1058C000530FA091540FB091550F892B8A2B8B2B1E
:1058D00009F088C460911B0270911C0283EC99E06E
:1058E0000E943B5B85E20E94A3388AE00E94A338B5
:1058F00079C40F94921AF82E87FD74C483E50E9430
:10590000A7450F2D0F2C000C110B882369F10E9465
:105910002345F801EE0FFF1FE35EFD4F9183808367
:10592000000F111F000F111F98012B5A3D4F7901D5
:10593000BC01990F880B990B0F94E3612AE037EDB6
:1059400043E25CE30F944262F801ED55FB4F208186
:105950003181428153810F944262D7016D937D93CF
:105960008D939C9313973EC40E942B5C85E40E9408
:10597000A33880E38F0D0E94A338000F111FF80198
:10598000E35EFD4F6081718187EC99E00E943B5B93
:1059900085E20E94A3388AE00E94A33823C480E5F0
:1059A0000E945E45882309F41DC460E070E080E534
:1059B0000E94B445F82E6FEF7FEF83E50E94B44557
:1059C0008C010196039708F00DC4F7FC0BC48F2DD2
:1059D0000E943536882339F00E945B5B8FEC99E09A
:1059E0000E94E059FFC30E944AA760E08F2D0F94E8
:1059F00016480F3FBFEF1B0731F00130110571F062
:105A000000E010E00DC08F2D0F94845C31E020E0A9
:105A1000892B09F030E0032F122F02C001E010E0C3
:105A20008F2D0F94845C8017910709F4DBC380E00D
:105A30000E94CF39F5CF80E50E945E45882309F4A6
:105A4000D1C30E9423458C01892B09F07FC083E5D7
:105A50000E945E45882389F00E9423458F3FEFEF27
:105A60009E0729F488E893E10E949936BBC3BC01E4
:105A700088E893E10E945937B5C30E942B5C60E02F
:105A800070E08EED99E00E943B5B80918A1328E5DF
:105A900032E06901C81AD10887FDD394CC0CDD1C13
:105AA000CC0CDD1C0D2C000CEE08FF088091891336
:105AB00028E830E04901881A910887FD9394880C02
:105AC000991C880C991C092C000CAA08BB08809111
:105AD00088138F3FC1F090E0FC01EE0FFF1F8E0F87
