:100000000C9414200C9445200C9445200C9445200D
:100010000C9445200C9445200C9445200C944520CC
:100020000C9445200C9445200C9445200C944520BC
:100030000C9445200C9445200C9445200C944520AC
:100040000C9445200C9417890C9445200C94452061
:100050000C9445200C9445200C94A6B90D9441496C
:100060000C9445200C94E4400C94DA400C94452008
:100070000C9445200C9445200C9445200C9445206C
:100080000C94B2380C9445200C9445200C944520D7
:100090000C9445200C9445200C9445200C9445204C
:1000A0000C9445200C9445200C9484380C944520E5
:1000B0000C9445200C9445200C9445200C9445202C
:1000C0000C9445200C9445200C9445200C9445201C
:1000D0000C9445200C9445200C9445200C9445200C
:1000E0000C9445201A412C413E414F4157418A41D1
:1000F0005B418A415F4163418A4167416B416F4186
:1001000078418A418341D57DB87DBB7DD87DBE7D58
:10011000C17DC47DD07DC77DE37DCA7DCD7DB1AB82
:1001200020AA59AAEDAB59AA59AA59AA59AA59AA5B
:1001300059AA59AA59AA59AA59AA59AA59AA59AAA7
:1001400059AA59AA59AA59AA59AA59AA59AA59AA97
:1001500059AA59AA59AA59AA59AAE7AB59AA59AAF8
:1001600059AA59AA59AA59AA59AA59AAC0AB59AA0F
:1001700059AA59AA59AA59AA59AA59AA59AA59AA67
:1001800059AA04AC56AA4B027102EB01C3026F01DB
:100190007302510175019F026F0285020D017B01FF
:1001A00095017302FB01F501B301DB01ED0153027F
:1001B000BF02E90133025B01BD022101FD01F9012A
:1001C00081023F02C1023302A9016D025301084AB4
:1001D000D73B3BCE016E84BCBFFDC12F3D6C74315B
:1001E0009ABD56833DDA3D00C77F11BED9E4BB4CB2
:1001F0003E916BAAAABE000000803F05A84CCDB27C
:10020000D44EB93836A9020C50B9918688083CA65C
:10021000AAAA2ABE000000803F000D9486470C94D5
:10022000E66C0C9490AD0D94A1370C94C97B0D94A1
:100230009D330C9454CD0C947E6E0C94A56C0C9450
:1002400024CF0D9493480C9483410C944BCA0D9485
:100250009F390C942C410C94C87A0C948C7D0C948E
:10026000BB7D0C94C6EB0C94D2EE0D9409340C9427
:10027000BC7A0C94346C0C94A47A0C945A6E0D9441
:10028000302C0C943E410C94AEEB0C9428CF0C9483
:10029000F07A0D94D5590C94C0E50C94846E0C94AE
:1002A0007EF00D946E470D94E8480C94D8740C942D
:1002B0004DE30C94F4740D9483480C94D46B0D941A
:1002C000D3590D942E280C9404AC0C94666E0C94A7
:1002D000CCE50C94BE7D0C94476C0C94EDAB0D9466
:1002E00063470C94B3700C948E780D9472470C9401
:1002F000FEE80C94906E0D948A470C94B07A0D949D
:10030000BD370D9487210C9493E60C946C6E0C947D
:1003100049CA0C94276F0C94736C0C94C9710D949A
:10032000AB370D94F5210D94F1210D948E470C946B
:100330005B410C94C96E0C94B47A0C94E76E0D94E6
:10034000DC210C944F410C948BE60C94AC7A0C9409
:10035000546E0D94D4480C94B87A0C9407600C94A5
:100360009EA90C944B930D949C470C94CE7A0C94BC
:100370001D770C94BB810D94EE330C94C8EB0C9458
:10038000FC7A0C94606C0C949BA90C944E6E0D94AA
:10039000D3330C940D750C94137E0C9463B20C94AF
:1003A000AE6E0C941A410C947A5F0D948B350C94BC
:1003B000D07D0D94F4270D945B480C9422CF0C94BF
:1003C000E1740D941B340C94A55F0C94C07A0C94CA
:1003D000216C0D9479480D9459470D9460480C9404
:1003E000C4EB0C94B87D0C9490E50D9498470C9454
:1003F0008C6C0D94A7480D9494470D949D480C94D3
:100400002A7E0C94D7E50C9495E50C940AF20C9492
:10041000E8710C94F67A0C94CA7D0C94C47D0C940B
:10042000D86E0C944DCA0C94BAE50D94EF590C9407
:10043000D87D0C9411EC0C94E37D0C94D66C0C9448
:1004400021860C9456AA0C9457410C949F6E0C94E0
:100450003EE30C94BB6B0D94D8210C9437E60C94BE
:10046000FC7D0C947E5F0D94F2480C94BD6E0C9450
:10047000066C0C94C77D0C9463410C9436F20D9479
:10048000C0480C94C0CB0C944FCA0C9452E30C940B
:10049000B9EB0C94939E0D9467470D94B7370C9469
:1004A00026CF0C94AB750D9465480C94C6E50C945E
:1004B000786E0C947B5F0C94726E0C94A87A0C94FA
:1004C00018E60C9418EC0C94B4E50C949AE50C9492
:1004D0008A6E0C94B0A90C94A07A0D94DE480D9409
:1004E0007C470D946A470D94A1470C946F410C947E
:1004F000D57D0C948BEB0C9459AA0C94987D0D949B
:10050000B8330D94B1480C94B1AB0D9480470D9461
:100510005D370D94ED210C94E7AB0C94D17A0C94DB
:10052000606E0C948A410C94699E0C9443E30C9485
:1005300018ED0C94BE6C0C94ED6B0C9478410D94FA
:1005400078470C94C17D0C9496E70C9448E30C9486
:10055000C76C0C94947E0D9474330C94417E0C946F
:1005600067410C94A5720C94A1A90C9466AD0C94EF
:10057000987E0C94E57D0C94E16C0D948B480D9461
:100580006F480D94CA480D945D470C94CB7A0D9436
:1005900082330C9444760C9420CF0C94DD7A0C9426
:1005A000C9740C94C0AB0C94CD7D0C946B410C942D
:1005B000C47A0C9420AA0C945F414E414E494E4996
:1005C0005459494E46CDCCCC3D0AD7233C17B7D120
:1005D0003877CC2B329595E6241FB14F0A000020C6
:1005E000410000C84200401C4620BCBE4CCA1B0E45
:1005F0005AAEC59D7400407A10F35A00A0724E188E
:10060000090010A5D4E80000E87648170000E40BC4
:1006100054020000CA9A3B000000E1F5050000808A
:10062000969800000040420F000000A086010000E4
:1006300000102700000000E8030000000064000034
:100640000000000A00000000000100000000002C73
:1006500076D888DC674F0823DFC1DFAE59E1B1B738
:1006600096E5E3E453C63AE651997696E8E6C28405
:1006700026EB898C9B62ED407C6FFCEFBC9C9F401D
:10068000F2BAA56FA5F490055A2AF75C936B6CF942
:10069000676DC11BFCE0E40D47FEF520E6B500D018
:1006A000ED902E0300943577050080841E0800002D
:1006B000204E0A000000C80C333333330F986E12FB
:1006C000831141EF8D2114893BE65516CFFEE6DB01
:1006D00018D1844B381BF77C1D901DA4BBE424204B
:1006E0003284725E228100C9F124ECA1E53D2743EA
:1006F0004F4D4D554E49434154494F4E0044525978
:1007000052554E004552524F5253004543484F00F8
:1007100047322F47332062616420706172616D65DA
:10072000746572730A00536C6565702E2E2E005A24
:100730002050726F62652050617374204265640AB4
:10074000005A2050726F62652050617374204265B8
:1007500064004D3131372050726F626520666169E7
:100760006C65642E205265776970696E672E0A4742
:1007700032380A4731322050302053313220543041
:100780000070726F62655F726577697065004732ED
:1007900039205265747279696E67004D31313720A6
:1007A000426564206C6576656C696E672066616978
:1007B0006C65642E0A4730205A31300A4D33303090
:1007C0002050323520533838300A4D3330302050E5
:1007D00035302053300A4D333030205032352053DD
:1007E0003838300A4D333030205035302053300AFD
:1007F0004D3330302050323520533838300A4D33A5
:100800003030205035302053300A473420533100E7
:1008100070726F62655F6661696C6564004D31314D
:100820003720426564206C6576656C696E6720646C
:100830006F6E652E004D65736820706F696E742051
:100840006F7574206F662072616E67650A004D30A7
:100850002053746F70004D312053746F7000436CDF
:1008600069636B20746F20526573756D652E2E2E33
:10087000004E6F204D6F76652E00456E64206669D0
:100880006C65206C6973740A00426567696E206646
:10089000696C65206C6973740A004E6F206D656425
:1008A00069610A00526573756D696E672053440073
:1008B000286E6F2066696C65290043757272656EDB
:1008C000742066696C653A200044656C6574696FD4
:1008D0006E206661696C65642C2046696C653A20FF
:1008E0000046696C652064656C657465643A005007
:1008F00072696E742074696D653A20000A537461E0
:1009000074733A2046696C616D656E742075736509
:10091000643A20002C204C6F6E67657374206A6FF8
:10092000623A2000546F74616C2074696D653A20DE
:10093000002C204661696C65643A20002C204669D1
:100940006E69736865643A20005072696E74733A18
:10095000200053746174733A2000452025530044ED
:10096000454255473A004D313133205300426564CA
:1009700020436F6F6C696E672E2E2E0042656420D7
:1009800048656174696E672E2E2E004D44472043E2
:10099000522D31302C20424D47204D4952524F525A
:1009A000202D2065334420563620435520424C4F9D
:1009B000434B204F46462E002F2F20004D3134351B
:1009C00020533C696E6465783E206F7574206F66B5
:1009D0002072616E67652028302D31290A00465249
:1009E0003A0020466C6F773A200050726F7465634E
:1009F0007465642050696E0A0020536572766F201A
:100A00000020643A0020693A0020703A006469735B
:100A10000043290A0061626C656420286D696E20BC
:100A200074656D702000436F6C6420657874727516
:100A300064657320617265200046696C616D656E46
:100A4000742072756E6F75742064697374616E635F
:100A50006520286D6D293A200046696C616D656ED0
:100A6000742072756E6F757420004D3432312069B8
:100A70006E636F727265637420706172616D65740C
:100A800065722075736167650A00454550524F4D88
:100A9000204F4B0A00446F6E65207072696E746956
:100AA0006E672066696C650A004D3737004D33313B
:100AB000000B07CF0A0407FD06EF06554E4B4E4FBD
:100AC000574E2053544154450047434F44455F49D6
:100AD0004E464F004C43445F50415553455F52458D
:100AE00053554D450046494C414D454E545F525576
:100AF0004E4F55545F434F4E54494E55450046495D
:100B00004C414D454E545F52554E4F5554004D3853
:100B1000373620526573706F6E64696E672050526D
:100B20004F4D50545F004572726F72207772697436
:100B3000696E6720746F20454550524F4D210A0061
:100B40004E6F20436865636B73756D2077697468B9
:100B5000206C696E65206E756D6265722C204C612B
:100B60007374204C696E653A2000636865636B732B
:100B7000756D206D69736D617463682C204C6173B1
:100B800074204C696E653A20004C696E65204E7584
:100B90006D626572206973206E6F74204C6173748E
:100BA000204C696E65204E756D6265722B312C206C
:100BB0004C617374204C696E653A20004D313130C0
:100BC0000053442072656164206572726F720A007E
:100BD0002121204B494C4C20636175736564206270
:100BE00079204B494C4C20627574746F6E2F70697C
:100BF0006E0A002121204B494C4C206361757365BE
:100C00006420627920746F6F206D75636820696E4F
:100C10006163746976652074696D65202D20637544
:100C20007272656E7420636F6D6D616E643A200040
:100C3000627573793A2070617573656420666F72AE
:100C400020696E7075740A00627573793A2070615C
:100C50007573656420666F7220757365720A006231
:100C60007573793A2070726F63657373696E670A82
:100C7000004D656469612052656D6F766564004D55
:100C80006564696120496E736572746564007061A2
:100C9000757365004D363030002066696C616D6596
:100CA0006E745F72756E6F7574200066696C616D2D
:100CB000656E745F72756E6F757420540046696C52
:100CC000616D656E7452756E6F75742054003637A1
:100CD00026033C3D380E2E303E131A1C180AFF43E3
:100CE00008090708440001726573756D6564005258
:100CF0006573756D696E67004732362048656174AB
:100D0000696E67204E6F7A7A6C65004732362048EC
:100D1000656174696E672042656400576169746932
:100D20006E6720666F72206865617475702E0A00A8
:100D30004669786564204C656E67746820507269F6
:100D40006D6500446F6E65205072696D696E670055
:100D50004D616E75616C207072696D696E672E2EC3
:100D60002E004732362043616E63656C6564004C2B
:100D7000656176696E6720473236003F5370656360
:100D8000696669656420582C5920636F6F726469C5
:100D90006E617465206F7574206F6620626F756E6A
:100DA00064732E0A003F28522965706561742076AD
:100DB000616C7565206E6F7420706C61757369620B
:100DC0006C653B206D757374206265206174206CC6
:100DD0006561737420312E0A003F53706563696644
:100DE000696564206E6F7A7A6C652074656D7065D4
:100DF000726174757265206E6F7420706C617573AA
:100E000069626C652E0A003F5370656369666965A7
:100E1000642066696C616D656E742073697A652003
:100E20006E6F7420706C61757369626C652E0A0058
:100E30003F537065636966696564207072696D65AA
:100E4000206C656E677468206E6F7420706C6175BD
:100E50007369626C652E0A003F5370656369666949
:100E60006564206E6F7A7A6C652073697A65206E8E
:100E70006F7420706C61757369626C652E0A003F37
:100E800052657472616374696F6E204D756C74691C
:100E9000706C696572206D75737420626520737063
:100EA000656369666965642E0A003F53706563690E
:100EB000666965642052657472616374696F6E203F
:100EC0004D756C7469706C696572206E6F742070FA
:100ED0006C61757369626C652E0A003F53706563BF
:100EE0006966696564206C61796572206865696707
:100EF0006874206E6F7420706C61757369626C65C4
:100F00002E0A0043292E0A003F5370656369666903
:100F10006564206265642074656D706572617475C6
:100F20007265206E6F7420706C61757369626C6598
:100F3000202834302D004732362073746172746972
:100F40006E672E2E2E0A00506C6561736520526507
:100F5000736574005052494E5445522048414C54D8
:100F600045440025533A20255300706F7765726F12
:100F70006666004B494C4C45442E20005072696E09
:100F80007465722068616C7465642E206B696C6C8A
:100F900028292063616C6C6564210A006563686FB1
:100FA0003A004572726F723A0042696C696E65610F
:100FB00072204C6576656C696E6720477269643A89
:100FC0000A0053544F505045442E20005072696E11
:100FD0007465722073746F70706564206475652029
:100FE000746F206572726F72732E20466978207458
:100FF0006865206572726F7220616E64207573651A
:10100000204D39393920746F2072657374617274A0
:101010002E202854656D7065726174757265206943
:10102000732072657365742E205365742069742073
:1010300061667465722072657374617274696E673B
:10104000290A0021212053544F502063616C6C65A4
:10105000642062656361757365206F6620424C543D
:101060006F756368206572726F72202D20726573D0
:10107000746172742077697468204D3939390A00B7
:101080005072696E74696E67204F626A656374009E
:101090002553202569002F2F616374696F6E3A0014
:1010A000656E640070726F6D70745F0073686F7747
:1010B0000044697361626C6552756E6F757400509F
:1010C000757267654D6F726500486F74656E642058
:1010D000746F6F20636F6C640A0053656E64204DFB
:1010E00031303820746F20726573756D650A005257
:1010F000656865617420446F6E650052656865615E
:1011000074696E672E2E2E00526568656174004802
:1011100065617465722054696D656F7574005365FF
:101120006E64204D31303820746F20686561742002
:101130006E6F7A7A6C650A004E6F7A7A6C65205011
:1011400061726B656400706175736564002569790F
:1011500020256964202569682025696D202569732B
:101160000023646566696E652044454641554C54CC
:101170005F004B6420004B6920004B7020005049F9
:1011800044204175746F74756E652066696E69736D
:10119000686564212050757420746865206C6173E3
:1011A00074204B702C204B6920616E64204B6420AE
:1011B000636F6E7374616E74732066726F6D2062FC
:1011C000656C6F7720696E746F20436F6E66696718
:1011D00075726174696F6E2E680A0050494420412F
:1011E00075746F74756E65206661696C6564212025
:1011F00074696D656F75740A000A20436C617373BE
:10120000696320504944200A00204B643A200020A2
:101210004B693A2000204B703A20000A204E6F2084
:101220006F76657273686F6F740A002054753A2088
:1012300000204B753A2000206D61783A2000206D27
:10124000696E3A200020643A200020626961733A96
:101250002000504944204175746F74756E65207389
:10126000746172740A00504944204175746F74753A
:101270006E65206661696C6564212054656D7065DA
:1012800072617475726520746F6F20686967680A8F
:1012900000504944204175746F74756E6500504963
:1012A00044204175746F74756E65206661696C6564
:1012B00064212042616420657874727564657220CF
:1012C0006E756D6265720A004572723A20757466B9
:1012D0003820666F6E74206E6F7420696E69746951
:1012E000616C697A65642E00000C0F00FE07022510
:1012F00003BB017FFE08FE08FE050808060000404B
:10130000F0C88888987810050808060000C0F8889A
:1013100088888888F80505050600012030F8302007
:101320000508080600002070F820202020E00509AC
:10133000090600FF2070A8A8B88888702007050556
:10134000070001D86C366CD80509090600FFF8A81B
:101350008888888888A8F8050A0A0600FE20505068
:10136000505088A8A8887003030306000340A040DB
:10137000FFFFFFFFFFFFFFFFFFFFFFFFFFFFFFFF7D
:10138000FFFFFFFFFFFF0000000605FF0107070644
:10139000020080808080800080030303060105A096
:1013A000A0A005060606000050F85050F8500509A8
:1013B000090600FF2070A8A07028A8702005070764
:1013C000060000C8C81020409898050707060000CE
:1013D00040A0A040A8906801030306020580808019
:1013E0000309090601FF204040808080404020031F
:1013F00009090601FF804040202020404080050769
:101400000706000020A8702070A82005050506002A
:10141000012020F820200203030601FFC0408005C0
:101420000101060003F8020202060100C0C0050720
:10143000070600000810102040408005070706003E
:1014400000708898A8C8887003070706010040C08C
:1014500040404040E0050707060000708808102063
:1014600040F8050707060000F808103008887005E6
:10147000070706000010305090F810100507070607
:101480000000F880F00808887005070706000030A3
:101490004080F0888870050707060000F8081010E3
:1014A0002020200507070600007088887088887053
:1014B0000507070600007088887808106002050597
:1014C000060100C0C000C0C00206060601FFC0C081
:1014D00000C0408003050506010120408040200532
:1014E0000303060002F800F8030505060101804029
:1014F000204080050707060000708810202000208B
:101500000507070600007088B8A8B88070050707AF
:10151000060000708888F88888880507070600009C
:10152000F04848704848F0050707060000708880BA
:1015300080808870050707060000F0484848484842
:10154000F0050707060000F88080F08080F80507A6
:1015500007060000F88080F08080800507070600FD
:1015600000708880809888700507070600008888CA
:1015700088F8888888030707060100E0404040405B
:1015800040E00507070600003810101010906005B5
:1015900007070600008890A0C0A0908805070706EE
:1015A0000000808080808080F805070706000088A2
:1015B000D8A8888888880507070600008888C8A8F2
:1015C00098888805070706000070888888888870D2
:1015D000050707060000F08888F08080800507076F
:1015E00006000070888888A8906805070706000034
:1015F000F08888F0A09088050707060000708880B2
:1016000070088870050707060000F82020202020B9
:1016100020050707060000888888888888700507E5
:1016200007060000888888885050200507070600B4
:101630000088888888A8A8500507070600008888C1
:101640005020508888050707060000888850202011
:101650002020050707060000F80810204080F80346
:1016600009090601FFE080808080808080E0050716
:1016700007060000804040201010080309090601F9
:10168000FFE020202020202020E0050303060005A5
:101690002050880501010600FEF80303030601053A
:1016A0008040200505050600007008788878050749
:1016B000070600008080F0888888F0050505060090
:1016C0000070808088700507070600000808788889
:1016D0008888780505050600007088F08070050789
:1016E00007060000304840E040404005070706007C
:1016F000FE708888887808700507070600008080DB
:10170000F0888888880307070601004000C0404031
:1017100040E00409090601FE10003010101010907E
:101720006005070706000080808890E09088030726
:1017300007060100C04040404040E00505050600A6
:1017400000D0A8A8A8A8050505060000B0C888888C
:10175000880505050600007088888870050707065B
:1017600000FEF0888888F080800507070600FE7874
:10177000888888780808050505060000B0C88080BC
:101780008005050506000078807008F0050707064B
:1017900000002020F82020201805050506000088FC
:1017A0008888986805050506000088888850200507
:1017B00005050600008888A8A85005050506000054
:1017C00088502050880507070600FE88888850202A
:1017D0004080050505060000F8102040F8030909BF
:1017E0000601FF204040408040404020010909069A
:1017F00002FF80808080808080808003090906014C
:10180000FF80404040204040408005030306000226
:1018100048A890FF452073746570732F6D6D005A52
:101820002053746570732F6D6D005920537465706B
:10183000732F6D6D00582053746570732F6D6D009C
:10184000496E69740050726F6265204F66667365F9
:10185000747300416363656C65726174696F6E00D7
:1018600056656C6F63697479005A2056616C7565B2
:1018700000496E646578205900496E646578205887
:10188000004661646520486569676874004564695D
:1018900074204D657368004C6576656C2042656404
:1018A000004732380A4732390052756E6F7574201E
:1018B00053656E736F7200554E4C4F41442046493C
:1018C0004C414D454E540046494C414D454E5420E7
:1018D0004348414E4745004D37303220542564007F
:1018E0004D36303020423020542564004D373032A0
:1018F000203B2564004D37303120542564004D379E
:101900003032004D373031004D363030204230001B
:101910005075726765206D6F726500524553554D65
:1019200045204F5054494F4E533A005052494E545F
:10193000205041555345440020204E6F7A7A6C6503
:101940003A2000256C642E25696D00457874727507
:1019500064656420546F74616C004C6F6E676573CE
:1019600074204A6F622054696D65003E2000546FF8
:1019700074616C205072696E742054696D65004307
:101980006F6D706C65746564005072696E7420438D
:101990006F756E7400313230004245443A20455034
:1019A000434F53203130304B0052756E617761796F
:1019B0002057617463683A204F4E004D617820547F
:1019C000656D70003435302B3135004D696E205413
:1019D000656D700045313A204550434F53203130FA
:1019E000304B005053550047656E65726963005077
:1019F000726F746F636F6C00312E300042617564DA
:101A00000031313532303000437265616C69747970
:101A100033442052414D50530042696C696E6561F8
:101A200072204C6576656C696E67004578747275D6
:101A300064657273004D44472043522D31302C2091
:101A4000424D47204D4952524F52202D206533447C
:101A500020563620435520424C4F434B0032303203
:101A6000302D30392D3239005072696E7465722014
:101A7000537461747300546865726D6973746F7226
:101A80007300426F61726420496E666F0050726924
:101A90006E74657220496E666F005061726B696E7C
:101AA000672E2E2E0000005761697420666F720049
:101AB00066696C616D656E74206368616E67650050
:101AC000746F207374617274005761697420666F5B
:101AD000720066696C616D656E7420756E6C6F6105
:101AE0006400004E6F7A7A6C652068656174696E77
:101AF0006700506C6561736520776169742E2E2EC6
:101B00000000507265737320627574746F6E007498
:101B10006F2068656174206E6F7A7A6C6500004989
:101B20006E736572742066696C616D656E740061B8
:101B30006E6420707265737320627574746F6E00CA
:101B4000746F20636F6E74696E7565005761697498
:101B500020666F720066696C616D656E74206C6FD3
:101B600061640000507265737320427574746F6E07
:101B700000746F20726573756D65207072696E7484
:101B800000005761697420666F72207072696E740C
:101B900000746F20726573756D652E2E2E000057D0
:101BA00061697420666F720066696C616D656E7440
:101BB000207075726765000052756E6F75742044F1
:101BC000697374206D6D004C6F6164206D6D0055FC
:101BD0006E6C6F6164206D6D0046696C2E204469E7
:101BE000612E004520696E206D6DC2B3004D33300B
:101BF000332055312045256920532569005049443B
:101C0000204175746F74756E65202A005049442D0B
:101C100044202A005049442D49202A005049442D8F
:101C200050202A0020082046616374002008204DBF
:101C30006178002008204D696E004175746F7465ED
:101C40006D700024F4D43050C38E20C2A24017829D
:101C50008B7011127A910D816CD90AA861E108C7C5
:101C6000586607615143061E4B5D05C145A7041A1E
:101C7000411104093D9803713931034036DB026597
:101C8000339102D4305402802E1D02632CEE017574
:101C90002AC501B028A001102781018F2564012BDE
:101CA000244B01E0223401AC211F018D200D018065
:101CB0001FFC00841EED00971DDF00B81CD200E65B
:101CC0001BC600201BBC00641AB200B219A8000A8F
:101CD00019A0006A189900D117910040178B00B520
:101CE00016840031167E00B31579003A157300C7CB
:101CF000146F0058146A00EE136600881363002501
:101D0000135E00C7125B006C12570015125400C11D
:101D100011510070114F0021114B00D61049008D58
:101D20001047004610440002104200C00F400080DF
:101D30000F3E00420F3C00060F3B00CB0E380093D5
:101D40000E37005C0E3500270E3400F30D3200C153
:101D50000D3100900D3000600D2E00320D2D00056C
:101D60000D2C00D90C2B00AE0C2900850C29005C31
:101D70000C2700350C27000E0C2600E80B2400C4AD
:101D80000B2400A00B23007D0B23005A0B210039EC
:101D90000B2100180B2000F80A1F00D90A1E00BBF7
:101DA0000A1E009D0A1D00800A1D00630A1C0047D0
:101DB0000A1B002C0A1B00110A1A00F7091A00DD81
:101DC000091900C4091900AB091900920917007B11
:101DD000091800630917004C09160036091600207F
:101DE0000916000A091500F5081500E0081400CCD2
:101DF000081400B8081400A4081400900813007D0B
:101E00000812006B0813005808120046081200342C
:101E1000081100230811001208110001081100F038
:101E2000071000E0071000D0071000C0071000B036
:101E3000070F00A107100091070E0083070F007421
:101E4000070F0065070E0057070E0049070E003BFD
:101E5000070D002E070E0020070D0013070D0006CA
:101E6000070D00F9060C00ED060D00E0060C00D48D
:101E7000060C00C8060C00BC060C00B0060C00A442
:101E8000060B0099060C008D060B0082060B0077EE
:101E9000060B006C060B0061060A0057060B004C8F
:101EA000060A0042060A0038060A002E060A002426
:101EB000060A001A060A001006090007060A00FDB5
:101EC000050900F4050900EB050900E2050900D940
:101ED000050900D0050900C7050900BE050900B5C0
:101EE000050800AD050800A50509009C050800943B
:101EF0000508008C050800840508007C05080074AE
:101F00000508006C050700650508005D050700561B
:101F10000508004E05070047050700400508003882
:101F2000050700310507002A050700230507001CE7
:101F3000050600160507000F050700080506000244
:101F4000050700FB040600F5040700EE040600E8A0
:101F5000040600E2040700DB040600D5040600CFF7
:101F6000040600C9040600C3040600BD040600B749
:101F7000040600B1040500AC040600A6040600A097
:101F80000405009B04060095040500900406008AE1
:101F900004050085040500800406007A0405007528
:101FA000040500700405006B04050066040500616B
:101FB0000405005C04050057040500520405004DAB
:101FC00004050048040500430405003E0404003AEB
:101FD00004050035040500300404002C0405002726
:101FE000040400230405001E0404001A040400165F
:101FF000040500110404000D040400090405000494
:1020000004040000040400FC030400F8030400F4CA
:10201000030400F0030400EC030400E8030400E4FC
:10202000030400E0030400DC030400D8030400D42C
:10203000030400D0030400CC030400C8030300C55C
:1020400003030024F404D9201BC40C5C0E9804C4C0
:10205000095F0265077101F405F900FB04B300484C
:10206000048700C10369005803550003034500BEFF
:10207000023A008402310053022A0029022500049A
:10208000022000E4011C00C8011900AF01170098EC
:10209000011400840113007101100061011000514E
:1020A000010E0043010D0036010B002B010B002037
:1020B000010B00150109000C01090003010800FBD8
:1020C000000800F3000800EB000700E4000600DE53
:1020D000000600D8000600D2000600CC000500C7AC
:1020E000000500C2000500BD000400B9000400B5F1
:1020F000000400B1000400AD000400A9000400A524
:10210000000300A20003009F0004009B000300984E
:102110000003009500020093000300900003008D6F
:102120000002008B00030088000200860002008489
:10213000000300810002007F0002007D0002007B9E
:1021400000020079000200770001007600020074AE
:1021500000020072000100710002006F0002006DB9
:102160000001006C0002006A0001006900020067C3
:1021700000010066000100650001006400020062C9
:1021800000010061000100600001005F0002005DCD
:102190000001005C0001005B0001005A00010059D1
:1021A00000010058000100570001005600010055D1
:1021B00000010054000100530000005300010052D0
:1021C00000010051000100500001004F0001004ECD
:1021D0000000004E0001004D0001004C0001004BCA
:1021E0000000004B0001004A0001004900010048C6
:1021F00000000048000100470001004600000046C2
:1022000000010045000000450001004400010043BA
:1022100000000043000100420000004200010041B4
:1022200000000041000100400001003F0000003FAD
:102230000001003E0000003E0001003D0000003DA6
:102240000001003C0000003C0000003C0001003B9D
:102250000000003B0001003A0000003A0001003994
:10226000000000390001003800000038000000388C
:102270000001003700000037000100360000003682
:102280000000003600010035000000350000003578
:10229000000100340000003400000034000100336D
:1022A0000000003300000033000100320000003263
:1022B0000000003200010031000000310000003158
:1022C0000001003000000030000000300001002F4D
:1022D0000000002F0000002F0000002F0001002E42
:1022E0000000002E0000002E0001002D0000002D37
:1022F0000000002D0000002D0001002C0000002C2B
:102300000000002C0000002C0001002B0000002B1E
:102310000000002B0000002B0001002A0000002A12
:102320000000002A0000002A000100290000002906
:1023300000000029000000290000002900010028F9
:1023400000000028000000280000002800000028ED
:1023500000010027000000270000002700000027E0
:1023600000000027000100260000002600000026D3
:1023700000000026000000260001002500000025C6
:1023800000000025000000250000002500000025B9
:1023900000010024000000240000002400000024AC
:1023A000000000240001002300000023000000239F
:1023B0000000002300000023000000230000002391
:1023C0000001002200000022000000220000002284
:1023D0000000002200000022000100210000002176
:1023E0000000002100000021000000210000002169
:1023F000000000210001002000000020000000205B
:10240000000000200000002000000020000000204C
:10241000000000200001001F0000001F0000001F3E
:102420000000001F0000001F0000001F0000001F30
:102430000001001E0000001E0000001E0000001E23
:10244000000000393000003325000087190000B07B
:102450000F0000DB080000BD040000740200003F14
:10246000010000486F6D696E67204661696C6564A4
:10247000006F70656E00545249474745524544000D
:1024800066696C616D656E74007A5F6D696E007966
:102490005F6D696E00785F6D696E005265706F7276
:1024A00074696E6720656E6473746F7020737461F5
:1024B0007475730A00486F6D652025732573257345
:1024C000204669727374005761726E696E673A20B4
:1024D000486F6D696E672042756D7020446976693A
:1024E000736F72203C20310A00000048420000480F
:1024F000420000C0400202040000A0400000A040D2
:102500000000004000009E43008098430000C34349
:10251000FFFFFF00000001000000010000800055E7
:102520005555000000400033333300AAAA2A004961
:1025300092240000002000C7711C0099991900D155
:10254000451700555515003BB113002449120011E1
:10255000111100000010000F0F0F00E3380E0043B0
:10256000790D00CCCC0C00C3300C00E8A20B006449
:10257000210B00AAAA0A00703D0A009DD80900425A
:102580007B090092240900DCD30800888808001029
:1025900042080000000800F0C107008787070075A7
:1025A000500700711C07003EEB0600A1BC06006945
:1025B00090060066660600703E0600611806001769
:1025C000F4050074D105005BB00500B2900500620F
:1025D0007205005555050078390500B81E0500053F
:1025E0000505004EEC040087D40400A1BD04009052
:1025F000A7040049920400C17D0400EE690400C7ED
:10260000560400444404005C3204000821040041E4
:10261000100400000004003FF00300F8E00300266F
:10262000D20300C3C30300CCB503003AA803000AD9
:102630009B0300388E0300C08103009F750300D008
:10264000690300505E03001D5303003448030091EA
:102650003D03003333030016290300381F0300979E
:10266000150300300C0300030303000BFA020049BA
:10267000F10200BAE802005CE002002DD802002D51
:10268000D0020059C80200B0C0020031B90200DA1D
:10269000B10200AAAA0200A0A30200BC9C0200FA98
:1026A0009502005C8F0200DF8802008282020045F2
:1026B0007C02002776020027700200436A02007C39
:1026C000640200D05E02003F590200C853020000BD
:1026D000000000000000600000000000FC00000F8F
:1026E000F00000000007E00000000001861FC01895
:1026F000700000000000603C0C000001830C6010C2
:10270000300000000000603C0C000001830C303001
:1027100030000000000060000C000000030C1830C6
:1027200000000000000060003F0F3C00030C0C6044
:1027300001DF0FE0FE00601C1C061800060C0C6098
:1027400000F318318300600C0C0318001E0C0C60A1
:1027500000E030398300600C0C033000030C0C6087
:1027600000C030380F00600C0C033000018C0C608E
:1027700000C03FF8FB00600C0C033000018C0C60C3
:1027800030C030018300600C0C01F001818C0C60C2
:1027900030C030018300600C0C00E001818C1830E7
:1027A00030C018318300600C0C40E001838C30187D
:1027B00060C00C6187C0E01C0CC06000C30C600FDF
:1027C000C3F007C0FFC7FC7F0781C0007E1FC000A9
:1027D00000000000000000000007000000000000F2
:1027E0000000000000000000000700000000001FC3
:1027F000FFFFFFFFFFFF600000000001FF4000003F
:10280000000000FF8000000000007F83CF00000C6C
:10281000303F87FF80000C301F867980000C000F4E
:102820008C30C7838C30E78C30CFC7CC31F38C3001
:10283000DCECEC33B98C30D86C6C33198C30D06C48
:102840000C33198C30D86C0C33198C30DC6C0E3B8B
:10285000198C30CF7C079F198C30C77C038F1940AF
:10286000000000000002600000000000061FFFFFE3
:10287000FFFFFFF870012C0190012701B001220138
:10288000C0011D01F00118011002130130020E01F8
:102890006002090190020401C002FF000003FA0077
:1028A0004003F5008003F000D003EB002004E600B5
:1028B0007004E100E004DC004005D700C005D20050
:1028C0004006CD00D006C8008007C3003008BE0017
:1028D000F008B900C009B400B00AAF00B00BAA00FC
:1028E000D00CA500000EA000500F9B00C010960059
:1028F0005012910000148C00C0158700B0178200A0
:10290000B0197D00D01B7800001E730040206E00BF
:1029100090226900F024640040275F0090295A004B
:10292000E02B5500102E500020304B001032460096
:10293000E033410090353C001037370070383200EA
:10294000A0392D00B03A2800A03B2300603C1E00B7
:10295000103D1900903D1400103E0F00703E0A001B
:10296000C03E0500003F0000403FFBFF803FF6FFF8
:10297000C03FF1FF68747470733A2F2F6D61726CF1
:10298000696E66772E6F726700322E302E37002008
:1029900020506C616E6E6572427566666572427932
:1029A0007465733A20002046726565204D656D6F31
:1029B00072793A2000436F6D70696C65643A20410A
:1029C000707220203320323032310A00204C617383
:1029D0007420557064617465643A20323032302D51
:1029E00030392D3239207C20417574686F723A205D
:1029F000284D414B45525320444556454C4F504D70
:102A0000454E542047524F5550204C4C432C204D9E
:102A100044472043522D313056332F424D47204DED
:102A20004952524F522F424C544F5543482F445510
:102A3000414C2D582F4455414C2D592F4455414C54
:102A40002D5A290A00322E302E370A004D61726C41
:102A5000696E0020536F66747761726520526573EA
:102A600065740A00205761746368646F672052655B
:102A70007365740A002042726F776E206F75742040
:102A800052657365740A002045787465726E616CD6
:102A90002052657365740A00506F77657255700A2D
:102AA000006175746F25632E6700473238585900EE
:102AB0004D31303031006572726F722077726974F7
:102AC000696E6720746F2066696C650A00446F6EDA
:102AD0006520736176696E672066696C652E0A00F1
:102AE0004D3239002553202563202563202563209E
:102AF000256300656E6473746F7073206869743A3F
:102B00002000FFFDFCFAF8F6F4F2F0EEECEAE9E75B
:102B1000E5E3E1E0DEDCDAD9D7D5D4D2D0CFCDCB36
:102B2000CAC8C7C5C3C2C0BFBDBCBAB9B7B6B4B3C3
:102B3000B2B0AFADACAAA9A8A6A5A4A2A1A09E9D23
:102B40009C9A99989795949392908F8E8D8B8A8961
:102B500088878684838281807F7E7D7B7A7978777F
:102B6000767574737271706F6E6D6C6B6A6968677D
:102B7000666564636261605F5E5D5C5B5A5958586C
:102B80005756555453525150504F4E4D4C4B4A4A44
:102B90004948474646454443424241403F3E3E3D08
:102BA0003C3B3B3A393838373635353433323231BD
:102BB00030302F2E2E2D2C2B2B2A29292827272663
:102BC000252524232322212120201F1E1E1D1C1CFD
:102BD0001B1B1A191918181716161515141313128A
:102BE000121111100F0F0E0E0D0D0C0C0B0A0A090D
:102BF0000908080707060605050404030302020185
:102C0000000000009B43008098430000C343000085
:102C1000C0C0000000000000000053657474696EBD
:102C200067732053746F7265640053657474696EC2
:102C300067732053746F726564202800456E636C5F
:102C40006F737572650000FE0003FF8007C7C00741
:102C500001E00000E00000F00000700400700E00D1
:102C6000701F00703F80F00E00E00F01E007C7C04A
:102C700003FF8000FE0000FE0003FF8007C7C00FB7
:102C800001E00E00E03F80F01F00700E00700400B5
:102C9000700000700000F00000E00701E007C7C00E
:102CA00003FF8000FE000E000E000E000E000E005E
:102CB0000E000E000E007FC03F801F000E000400BB
:102CC00004000E001F003F807FC00E000E000E00AB
:102CD0000E000E000E000E000E00FFFFFF7F80FFB3
:102CE000C0FFC0FFC07F807F80FFC0FFC0FFC03F2C
:102CF000001E000C00496E76616C69642065787472
:102D000072756465720A0048656174696E67204671
:102D100061696C65640048656174696E672066610D
:102D2000696C6564004D3131322053687574646F8D
:102D3000776E00202D20496E76616C69642065787D
:102D4000747275646572206E756D62657220210AF9
:102D500000544845524D414C2052554E415741591F
:102D600000546865726D616C2052756E617761798F
:102D7000004572723A204D415854454D50004D4126
:102D80005854454D502074726967676572656400D8
:102D90004572723A204D494E54454D50004D494EB2
:102DA00054454D50207472696767657265640020F0
:102DB0002F002042403A0020403A0020573A007C41
:102DC0003C3E5E2B3D3F2F5B5D3B2C2A225C005638
:102DD00054726176204D696E00566D696E00566DB5
:102DE0006178204500566D6178205A00566D6178F3
:102DF000205900566D6178205800416D617820455A
:102E000000416D6178205A00416D61782059004180
:102E10006D6178205800412D54726176656C0041D7
:102E20002D5265747261637400416363656C005672
:102E3000652D4A65726B00565A2D4A65726B0056B5
:102E4000592D4A65726B0056582D4A65726B0050B9
:102E5000726F62652059204F666673657400507208
:102E60006F62652058204F66667365740050726902
:102E70006E74205061757365640020746F6F206CF0
:102E80006F6E6720657874727573696F6E207072EB
:102E90006576656E7465640A0020636F6C642065F6
:102EA0007874727573696F6E2070726576656E7472
:102EB00065640A00626567696E00627574746F6E9E
:102EC00000436F6E74696E7565004C6F61642046D7
:102ED000696C616D656E74205400496E736572741F
:102EE0002066696C616D656E7420616E6420736527
:102EF0006E64204D3130380A00220A00556E6B6E28
:102F00006F776E20636F6D6D616E643A2022004DA5
:102F100044472043522D31302C20424D47204D490B
:102F200052524F52202D20653344205636204355AF
:102F300020424C4F434B2052656164792E00507201
:102F4000696E74696E672E2E2E00205A3A00205941
:102F50003A00436F6E66696775726174696F6E00DF
:102F600043616E63656C204F626A65637400436100
:102F70006E63656C004F6666004F6E004D6F74693E
:102F80006F6E004368616E6765204D65646961001E
:102F90004D32310041626F7574205072696E7465F4
:102FA0007200526573756D65205072696E74004EC3
:102FB0006F204D656469610054756E650053746FD0
:102FC00070205072696E7400506175736520507284
:102FD000696E7400496E666F2053637265656E009A
:102FE0005374617274205072696E740043616E6E26
:102FF0006F7420656E746572207375626469723ACD
:103000002000022E2E00536F667420456E64737488
:103010006F7073004D3834004175746F20486F6DC8
:10302000650054656D7065726174757265005072EB
:103030006F6265205A204F6666736574004D616942
:103040006E0044697361626C6520537465707065CD
:103050007273004D34382050726F6265205465736E
:103060007400473238204F0A4D3438205031300038
:10307000486F6D65205A004732385A00486F6D65B9
:103080002059004732385900486F6D652058004775
:1030900032385800473238005072656865617420D4
:1030A0002420456E64005072656865617420242098
:1030B00042656400436F6F6C646F776E0046616EAB
:1030C000205370656564207E00466C6F7700205346
:1030D000697A653A200043616E6E6F74206F706587
:1030E0006E207375626469722000534420496E69D2
:1030F00074204661696C0053442063617264206FE0
:103100006B0A006F70656E526F6F74206661696C38
:1031100065640A00766F6C756D652E696E69742042
:103120006661696C65640A004E6F205344206361D8
:1031300072640A004D3233202573006F70656E2073
:103140006661696C65642C2046696C653A200046AE
:10315000696C652073656C65637465640A00466913
:103160006C65206F70656E65643A2000454E4420A2
:10317000535542524F5554494E450A002220706F14
:1031800073002220706172656E743A2200535542BA
:10319000524F5554494E452043414C4C2074617266
:1031A0006765743A220053756263616C6C204F76D8
:1031B0006572666C6F770045786365656465642049
:1031C0006D617820535542524F5554494E45206405
:1031D000657074683A310A0057726974696E6720C5
:1031E000746F2066696C653A2000534420707269E0
:1031F0006E74696E67206279746520004E6F74206A
:103200005344207072696E74696E670A0066726555
:10321000736800646F696E67004E6F7720002062EC
:10322000797465733B2063726320004E6F204545BF
:1032300050524F4D2E0A00205200454550524F4DDE
:10324000206461746173697A65206572726F722E91
:103250000A002073746F7265642073657474696EFC
:103260006773207265747269657665642028002032
:103270002863616C63756C6174656429210A0020A0
:10328000213D2000454550524F4D20435243206D73
:1032900069736D61746368202D202873746F726583
:1032A00064292000496E6465783A2000204D6172DF
:1032B0006C696E3D563831290A00454550524F4DD4
:1032C0002076657273696F6E206D69736D617463CA
:1032D000682028454550524F4D3D00486172646357
:1032E0006F6465642044656661756C742053657411
:1032F00074696E6773204C6F616465640A003B20DB
:103300000020204D363033200020204D3431322033
:10331000530046696C616D656E742072756E6F75D1
:10332000742073656E736F723A0020550046696CA5
:10333000616D656E74206C6F61642F756E6C6F616A
:1033400064206C656E677468733A0020204D3835D0
:10335000312058005A2D50726F6265204F66667397
:1033600065740020204D33303420500020204D3330
:1033700030312050005049442073657474696E6781
:10338000733A0020460020480020204D313435207B
:1033900053004D6174657269616C20686561747574
:1033A0007020706172616D65746572733A00204AB5
:1033B000002020473239205720490020204D343248
:1033C000302053004175746F20426564204C65764F
:1033D000656C696E673A0020204D3230352042001E
:1033E000416476616E6365643A20423C6D696E5F4C
:1033F0007365676D656E745F74696D655F75733E47
:1034000020533C6D696E5F66656564726174653EEC
:1034100020543C6D696E5F74726176656C5F6665A1
:103420006564726174653E20583C6D61785F785FB9
:103430006A65726B3E20593C6D61785F795F6A65A1
:10344000726B3E205A3C6D61785F7A5F6A65726B81
:103450003E20453C6D61785F655F6A65726B3E003A
:1034600020204D323034205000416363656C65721A
:103470006174696F6E2028756E6974732F733229B9
:103480003A20503C7072696E745F616363656C3E94
:1034900020523C726574726163745F616363656C32
:1034A0003E20543C74726176656C5F616363656C49
:1034B0003E0020204D3230312058004D6178696D3A
:1034C000756D20416363656C65726174696F6E2010
:1034D00028756E6974732F7332293A0020204D329B
:1034E00030332058004D6178696D756D20666565D3
:1034F0006472617465732028756E6974732F732903
:103500003A0053746570732070657220756E69742B
:103510003A0020440020204D323030205300204417
:10352000697361626C65640A0046696C616D656E01
:10353000742073657474696E67733A0020204D318E
:1035400034392043203B20556E69747320696E2006
:1035500043656C736975730A0020286D6D2900201E
:1035600020473231202020203B20556E6974732083
:10357000696E206D6D0000007A4400803B440000BD
:10358000F0410000F0420000A0420000A042000014
:10359000C8430080CF43D0070000D00700002003BD
:1035A000000088130000446966663A202020004627
:1035B000726F6D5374703A00537465707065723A2F
:1035C00000556E4C6576656C3A004C6576656C65A9
:1035D000643A005261773A20202020000A4C6F673D
:1035E0006963616C3A00436F756E7420453A00431D
:1035F00061703A004348414D4245525F54454D5039
:103600004552415455524500424142595354455048
:1036100050494E470041524353004D4F54494F4E7D
:103620005F4D4F44455300544845524D414C5F5007
:10363000524F54454354494F4E004C4F4E475F46FE
:10364000494C454E414D45004155544F5245504F10
:1036500052545F53445F53544154555300534443B1
:103660004152440050524F4D50545F535550504FAB
:10367000525400454D455247454E43595F504152C3
:1036800053455200434153455F4C494748545F42BC
:1036900052494748544E45535300544F47474C45B1
:1036A0005F4C494748545300534F46545741524585
:1036B0005F504F574552004255494C445F50455268
:1036C00043454E54004C4556454C494E475F444196
:1036D0005441005A5F50524F4245004155544F4C9F
:1036E0004556454C005052494E545F4A4F42005097
:1036F000524F4752455353004155544F5245504F36
:1037000052545F54454D5000564F4C554D45545200
:1037100049430042494E4152595F46494C455F5426
:1037200052414E534645520053455249414C5F5811
:103730004F4E5F584F4646004649524D57415245FD
:103740005F4E414D453A4D61726C696E20322E30AC
:103750002E37202841707220203320323032312021
:1037600030303A32303A32342920534F55524345A3
:103770005F434F44455F55524C3A68747470733AD6
:103780002F2F6769746875622E636F6D2F4D61729C
:103790006C696E4669726D776172652F4D61726CEE
:1037A000696E2050524F544F434F4C5F5645525311
:1037B000494F4E3A312E30204D414348494E455FE6
:1037C000545950453A4D44472043522D31302C2016
:1037D000424D47204D4952524F52202D20653344CF
:1037E00020563620435520424C4F434B20455854D9
:1037F00052554445525F434F554E543A312055552A
:1038000049443A63656465326132662D3431613210
:103810002D343734382D396231322D6335356336E6
:10382000326633363766660A0050726F6265204F23
:103830006666736574205A003F5A206F7574206F56
:10384000662072616E67652028003F59206F75748D
:10385000206F662072616E676520282D0020746FCE
:1038600020003F58206F7574206F662072616E676C
:103870006520282D0050726F6265204F6666736563
:1038800074205800656E7175657565696E672022D4
:10389000006F6B00526573656E643A200050726F62
:1038A00062696E6720506F696E7400255320256928
:1038B0002F25690050726F62696E67206D657368AD
:1038C00020706F696E742000202844525952554E62
:1038D0002900473239204175746F20426564204CBD
:1038E0006576656C696E67003F20284C2C522C462B
:1038F0002C4229206F7574206F6620626F756E648C
:10390000732E0A003F2856296572626F7365206C1A
:103910006576656C20696D706C61757369626C6544
:103920002028302D34292E0A00426164205A207646
:10393000616C75650A004E6F2062696C696E656125
:103940007220677269640A00446576696174696F00
:103950006E0025533A2025730046696E69736865C9
:1039600064210A003A207A3A2000206F662000473E
:103970006F696E6720746F3A20580043570A002021
:103980006469723A0020616E676C653A0053746135
:103990007274207261646975733A004D3438205036
:1039A0006F696E740025533A2025642F25640050FA
:1039B0006F736974696F6E696E67207468652070D3
:1039C000726F62652E2E2E0A003F4C656773206F62
:1039D00066206D6F76656D656E7420696D706C61C3
:1039E000757369626C652028302D3135292E0A00E7
:1039F0003F2028582C5929206F7574206F6620624B
:103A00006F756E64732E0A0050726F6265206F7559
:103A100074206F6620626F756E6473003F53616D32
:103A2000706C652073697A65206E6F7420706C61AC
:103A3000757369626C652028342D3530292E0A0093
:103A40004D3438205A2D50726F6265205265706572
:103A500061746162696C69747920546573740A00D9
:103A60005374616E6461726420446576696174693F
:103A70006F6E3A20002052616E67653A2000205335
:103A800069676D613A20004D65616E3A20004163BF
:103A900063656C65726174696F6E3A2050005741BE
:103AA000524E494E4721204C6F77205A204A65726A
:103AB0006B206D6179206C65616420746F20756E78
:103AC00077616E746564207061757365732E0A008A
:103AD000204D393220580020204D61783A200020B6
:103AE000204D696E3A2000536F667420656E6473D2
:103AF000746F70733A2000496E76616C696420506F
:103B0000696E204D6F64650A0020496E76616C69AC
:103B10006420657874727564657220003F00496E98
:103B2000697469616C697A6520454550524F4D0052
:103B30006E6F74696669636174696F6E200063619A
:103B40006E63656C005072696E742041626F7274AE
:103B50006564004469736D6973730055492041625F
:103B60006F72746564004D323520500A4D32340056
:103B7000526573756D650055492050617573650018
:103B800050617573696E672E2E2E00726573756DA8
:103B90006500454550524F4D2056657273696F6EF2
:103BA000204572726F7200454550524F4D20496E4C
:103BB000646578204572726F7200454550524F4DD2
:103BC00020435243204572726F720049676E6F72D4
:103BD00065001FE020102010201010201020201061
:103BE000201030300840048003001FE03FF03FF019
:103BF0003FF01FE01FE03FF03FF03FF00FC00780B5
:103C000003003FFFF038007030FC3020FC102078BB
:103C1000102030102C00D02E31D02F7BD02F7BD015
:103C20002E31D02C00D020301020781020FC103005
:103C3000FC303800703FFFF03FFFF03800703186F5
:103C4000302387102787902F87D02F03D020301064
:103C50002078102078102030102F03D02F87D02705
:103C600087902387103186303800703FFFF01FFFA8
:103C7000F81FFFF80410400208200208200410403A
:103C800008208010410010410008208004104000EE
:103C900000001FFFF81FFFF800FBF0000001D9B87B
:103CA000E3800389B9E7C00381F0C6C003C1B8C689
:103CB000C001FBB8E7C000FBDFF38000000000009C
:103CC00000000000000003CE00000001C8F000006A
:103CD00001D9F0000000F070000000F0600000006A
:103CE00060F800000061F8002568753A25303268F8
:103CF000750025303268753A25303268750020200D
:103D00002020202020004C6F61642053657474696A
:103D10006E67730053746F72652053657474696EB7
:103D2000677300416476616E6365642053657474E3
:103D3000696E6773004E4F005945530043616E63CF
:103D4000656C204F626A656374203D0053746F7721
:103D50000053572D4D6F6465004465706C6F79009A
:103D600053656C662D546573740046616E20537004
:103D700065656400526573746F72652044656661A1
:103D8000756C7473005072656865617420242043FB
:103D90006F6E6600424C546F75636800504554471F
:103DA00000504C41005072696E742066726F6D2035
:103DB0004D656469610050726F62696E672046618B
:103DC000696C656400205A3A200020593A2000426C
:103DD000656420583A20004368616E676520466933
:103DE0006C616D656E7400556E6C6F616420466920
:103DF0006C616D656E74004C6F61642046696C6126
:103E00006D656E74005072656865617420437573EA
:103E1000746F6D00507265686561742024004261A2
:103E2000636B00A13D9C3D00002100240027002A77
:103E3000002D003000330001010000040107010AD9
:103E40000100002200250028002B002E0031003444
:103E50000002010000050108010B01000020002301
:103E600000260029002C002F003200000100000372
:103E700001060109010505050507050808080802EE
:103E80000202020A0A0808040404040101010101F3
:103E90000101010303030303030303040707070CE2
:103EA0000C0C0C0C0C0C0C02020202060606060698
:103EB0000606060B0B0B0B0B0B0B0B010210202045
:103EC000080810204010204080020102010804026E
:103ED00001010204081020408080402010080402E4
:103EE000018004020180402010080402010804023D
:103EF0000101020408102040800102040810204043
:103F00008000000A0B02090C0D0E080703040100D3
:103F100000000000000000000000000000000000A1
:103F2000000000000000000000000000001211105E
:103F30000000000000000000000000000000000081
:103F4000000000000000004D6F76652025736D6D48
:103F5000004D6F766520302E316D6D004D6F7665AA
:103F600020316D6D004D6F76652031306D6D004DE7
:103F70006F7665204178697300486F74656E6420C0
:103F8000746F6F20636F6C6400457874727564653C
:103F900072004D6F7665205A004D6F76652059008E
:103FA0004D6F76652058004F46460A0046616465AD
:103FB000204865696768742000426564204C657616
:103FC000656C696E6720004661696C656420746F7A
:103FD00020656E61626C6520426564204C65766583
:103FE0006C696E670A00496E76616C6964206D6564
:103FF00073682E0A0020436F756E7420583A00458E
:104000003100626564002C2073797374656D2073D0
:10401000746F7070656421204865617465725F49D2
:10402000443A20001502490111241FBECFEFD1E20E
:10403000DEBFCDBF00E00CBF13E0A0E0B2E0E0EDDA
:10404000F8ED02E00BBF02C007900D92A233B1075A
:10405000D9F727E1A2E3B3E001C01D92AD3AB20760
:10406000E1F710E2C3E1D0E200E006C021970109C8
:10407000802FFE010F94B968C231D10780E0080794
:10408000A9F70F949A520D94566C0C9400002F923D
:104090003F924F925F926F927F928F929F92AF92D8
:1040A000BF92CF92DF92EF92FF920F931F93CF9325
:1040B000DF93CDB7DEB7E7970FB6F894DEBF0FBE3C
:1040C000CDBF8EAB20917B072CAB11E010937B070B
:1040D000809104108D3409F44CC3843511F40C9490
:1040E0001B31873411F00C942D3180910210909186
:1040F00003108B31910509F41BC1B4F48430910590
:1041000034F482309105E4F597FF2EC02EC385313B
:10411000910511F40C942F318A31910509F404C1F1
:10412000049709F022C3C1C08A32910509F43DC247
:104130004CF48D319105B1F00CF415C14E9709F492
:104140005EC113C38B35910509F4D8C18C35910537
:1041500009F4D9C18A35910509F007C310924103CA
:104160000C942F3114E02DC18091B306813011F0F1
:104170000C942F310F94D8190E94E2970C942F3190
:104180002091B306213011F00C942F3111E00297E9
:1041900009F010E00F94D81919821A821B821C8230
:1041A0001D821E821F82188682E50E94E4458823B4
:1041B00009F44BC00E9464456B017C0120E030E0B3
:1041C000A9010F94BE61882309F455C0809155025E
:1041D00090915602A0915702B091580288A799A7D2
:1041E000AAA7BBA78091590290915A02A0915B02A5
:1041F000B0915C0288AB99ABAAABBBAB8090501777
:1042000090905117A0905217B090531740905417A8
:10421000509055176090561770905717A50194014C
:1042200068A579A58AA59BA50F94BE6181110C9400
:104230003831A301920168A979A98AA99BA90F9491
:10424000BE618823C1F00C94383189E40E94E445B2
:10425000882331F00E94644569837A838B839C8331
:104260008AE40E94E445882331F00E9464456D830E
:104270007E838F83988720E030E0A90169817A816D
:104280008B819C810F94BE6181110C94EC3120E0F4
:1042900030E0A9016D817E818F8198850F94BE6188
:1042A00081110C94EC310C94143280E50E94E445A9
:1042B000882329F00F94D0106B017C0103C0C12C1E
:1042C000D12C760183E50E94E445882361F00E94A9
:1042D000644520E030E04AE754E40F9424620F94F0
:1042E000356A6B017C010E9462A780919610811152
:1042F00005C060E086E297E00F94B0270F9435493F
:10430000C60ED71EE81EF91E0F943549DC01CB01FD
:104310008C199D09AE09BF09B7FD02C00C942F315D
:1043200080E00E940C3AF0CF0E9415460C942F3189
:1043300087E00E94019781110C942F318CE0EBE90A
:10434000F2E0DE01119601900D928A95E1F760E0AE
:1043500070E080E50F94C41EBE016F5F7F4F0F9425
:104360006C260C942F318091C9048770873011F02E
:104370000C941B3260E08FE40E94004681110C9483
:104380002F310C941B328091E20F81112AC00F94BF
:10439000F514882361F1115011F40C94FC3320E0E2
:1043A00030E043E55BE36EE877E085E00E945B5A2E
:1043B00061E081E897E00E94085A82E597E00F9457
:1043C000C30F0F94354960932A0770932B0780938E
:1043D0002C0790932D0787E00E940197882399F27C
:1043E00006C060E08FE40E940046882381F20E94AC
:1043F000205A8DE198E00F94C30F0C942F31209137
:10440000621730916317409164175091651760915E
:1044100055027091560280915702909158020F9464
:10442000C268AB01BC0188E50E941D6469837A8380
:104430008B839C8320916617309167174091681792
:10444000509169176091590270915A0280915B02F4
:1044500090915C020F94C268AB01BC0189E50E9497
:104460001D646D837E838F839887BE016B5F7F4F52
:10447000CE0101960F94E94B882311F40C942F314F
:1044800080E00E94D0550E94BA9A61E085E40E94C3
:104490000046182F21E0482FBE016B5F7F4FCE01F1
:1044A00001960F94CB406B017C019B01AC010F94F2
:1044B000B46B811119C049815A816B817C818FEC69
:1044C0009DE30E94445B4D815E816F8178858AEC1B
:1044D0009DE30E94445BB701A60185EC9DE30E9429
:1044E000445B8AE00E94E0380E94A19A113011F4E6
:1044F0000F94DB140E940A9D0C942F318FE080935F
:1045000041030C942F31A2EECA2EA2E0DA2EB5E5BB
:10451000EB2EB2E0FB2E00E0312C10E0D6018D91A5
:104520006D010E94E445882359F10E9464454B01C6
:104530005C01F70120813181428153810F94C16870
:104540002B013C012DEB37E346E855EB0F94226B32
:1045500087FD0AC02DEB37E346E855E3C301B201FE
:104560000F94BE61181664F4133011F401E002C018
:1045700033243394D7018D929D92AD92BC921397C0
:104580001F5FB4E0EB0EF11C143041F6332019F03C
:104590000E94089D06C0002321F081E692E00E945F
:1045A00073A70E940A9D0C942F318091B30681302D
:1045B00011F00C942F3189E40E94E445E82E882301
:1045C00021F00E946045082F01C000E08AE40E94AB
:1045D000E445F82E882321F00E946045182F01C081
:1045E00010E0EE2011F0083020F4FF2041F01830E8
:1045F00030F085E398E00E94F9590C942F3180E166
:10460000E5E5F2E0A0E5B7E101900D928A95E1F7CA
:10461000EE2019F1602F000F770B880B990B0F9488
:10462000C5612091C20E3091C30E4091C40E5091CD
:10463000C50E0F9424622091B40E3091B50E4091B6
:10464000B60E5091B70E0F94C268609350177093D6
:1046500051178093521790935317FF2019F1612F30
:10466000110F770B880B990B0F94C5612091C60E23
:104670003091C70E4091C80E5091C90E0F9424621C
:104680002091B80E3091B90E4091BA0E5091BB0EE8
:104690000F94C26860935417709355178093561700
:1046A0009093571760E080E50E9400468823C1F18F
:1046B000EE20D1F02091621730916317409164177A
:1046C0005091651760915017709151178091521752
:1046D000909153170F94C1686093501770935117BE
:1046E0008093521790935317FF20D1F020916617B3
:1046F000309167174091681750916917609154176E
:104700007091551780915617909157170F94C16863
:1047100060935417709355178093561790935717BB
:1047200040E050E0BA0186E40E941D646B017C0108
:1047300020E030E0A9010F94226B18164CF420E021
:1047400030E040E752E4C701B6010F94BC6903C0F2
:1047500060E070E0CB0169837A838B839C83CE0118
:1047600001960E94DB9B0C942F310E944CE10C942B
:104770002F3180910210909103108737910509F431
:10478000B7C70CF01FC18C34910509F45BC40CF061
:104790009CC08A31910509F418C3BCF58431910598
:1047A00009F48CC27CF48131910509F473C22CF4B4
:1047B000029708F425C20C941831429709F48EC66A
:1047C0000C9418318731910509F4ADC294F4853108
:1047D000910509F4A4C2469711F00C9418310E9477
:1047E0007DF68091E115877F80628093E1150C94BE
:1047F0002F318831910509F4ADC2499711F00C941D
:1048000018310F94FF1D0C942F318032910509F45B
:10481000BBC3ECF58D31910509F44CC384F48B31A5
:10482000910509F4E0C24C9711F00C941831809175
:104830005804909159040E94BCF90C942F318E3188
:10484000910509F43EC34F9711F00C9418310E9462
:10485000059E6C8F7D8F8E8F9F8FBE016F5F7F4F08
:10486000CE014C960E94A26960E0CE0101960F94A1
:1048700067280E94455CBE016F5F7F4F8FEE98E016
:104880000E94625B8AE00E94E0380C942F318033F2
:10489000910509F4C0C364F48132910509F4A9C3F8
:1048A0008A9711F00C9418310F94D71E0C942F3165
:1048B0008934910509F4B3C38B34910511F00C943C
:1048C00018310E94BB360C942F318A36910509F4B9
:1048D000B8C4ACF58335910509F4F9C5BCF48E3440
:1048E000910509F4B7C30CF4B1C38135910509F4FE
:1048F000D8C58235910511F00C941831809141038F
:104900008F7D8061809341030C942F318C3591050C
:1049100009F40AC654F48435910509F4DFC58535D8
:10492000910509F4DEC50C9418318836910509F417
:1049300023C48936910509F470C40C94183180376A
:10494000910511F40C942F31D4F48D36910509F4AE
:104950003AC45CF48B36910509F4B6C48C369105E3
:1049600011F40C942F310C9418318E36910509F402
:10497000B8C48F36910509F4C5C40C941831833737
:10498000910509F46FC66CF48137910509F4FFC4F1
:104990008237910511F00C9418310F94520E0C943B
:1049A0002F318537910509F460C68637910511F0DE
:1049B0000C941831009158041091590494E0F12C92
:1049C00040E07AC68033E1E09E0711F40C94882E13
:1049D0000CF079C08C3C910509F49CC774F58139C1
:1049E000910509F497C684F48937910509F48BC6BB
:1049F0000CF481C68D37910509F450C58C389105AA
:104A000009F4E7C40C941831883C910509F4F6C602
:104A100054F48B39910509F41BC58E3B910509F4BB
:104A2000F7C40C941831893C910509F42EC78B3CCE
:104A3000910509F450C70C941831883121E0920790
:104A400011F40C94592DE4F48C3D910509F468C7D8
:104A50006CF48D3C910509F460C7833D910511F01C
:104A60000C9418310F94391F0C942F318D3D910502
:104A700009F47DC7823E910509F4CFC70C94183123
:104A80008D32A1E09A0711F40C94082E6CF4823256
:104A9000E1E09E0711F40C94F02D8C32914011F45A
:104AA0000C94F32D0C9418318E3221E0920711F4FE
:104AB0000C94FB2E8F32914011F00C9418310E940F
:104AC00034640C942F31873FA1E09A0711F40C94C1
:104AD00047300CF04BC0843AE1E09E0711F40C948F
:104AE0005E2F0CF5823921E0920711F40C944C2FC3
:104AF0006CF48039A1E09A0711F40C943F2F8139AE
:104B0000914011F40C94422F0C9418318A39E1E051
:104B10009E0711F40C942F318C39914011F40C94B0
:104B2000532F0C941831843F21E0920711F40C9418
:104B300041306CF4853AA1E09A0711F40C94612F8E
:104B4000863E914011F40C94D52F0C941831853F7A
:104B5000E1E09E0711F40C944430863F914011F03F
:104B60000C9418310E943BFB0C942F318E3B22E0B9
:104B7000920711F40C94E7301CF58835A2E09A07EF
:104B800011F40C946D306CF4883FE1E09E0711F451
:104B90000C944F308C30924011F40C9460300C9493
:104BA00018318B3522E0920711F40C9470308D3B54
:104BB000924011F00C9418310F94BA1B0C942F31C1
:104BC000803AA3E09A0709F418C26CF48335E3E055
:104BD0009E0711F40C94EA308C36934011F40C9437
:104BE0002F310C941831873E23E0920711F40C9476
:104BF000ED30893E934011F40C94FB300C94183145
:104C000080E50E94E445882329F00F94D0106B01C1
:104C10007C0103C0C12CD12C760183E50E94E445C0
:104C2000882361F00E94644520E030E04AE754E4C4
:104C30000F9424620F94356A6B017C010E9462A775
:104C40008091580490915904009721F061E00F94ED
:104C5000672805C060E08EE598E00F94B02780914A
:104C6000021090910310892B19F066E578E002C0DC
:104C70006EE478E020E030E041EC5EE282E00E9409
:104C80005B5A40E0C701B6010E949C400E9429E1A6
:104C90000C942F318091051084FF02C00C941234C3
:104CA0008091071087FF02C00C9412348091081085
:104CB000837011F00C9412340C942E348091E11511
:104CC00083FF25C089E898E00E94F9598091E11599
:104CD00083FF17C085EC93E10E9432C48BE1E5ECC1
:104CE000F3E1DE01119601900D928A95E1F760E003
:104CF00070E0CE0101960E945FF8CE0101960E94FD
:104D000094C58AE798E00E94F9590C942F310E94CB
:104D1000455C8AE998E00E94F9590C942F310E9471
:104D20003CF70C942F31E0915804F09159048081A4
:104D3000882329F0803209F410823196F8CF60E0A0
:104D400080915804909159040E9406FA109205111E
:104D50000C942F3180911D0E8823F9F080E090E0B3
:104D6000A0EAB1E488A399A3AAA3BBA31C8E1D8EBD
:104D70001E8E1F8E19821A821B821C8200E010E098
:104D800020E0AE01405E5F4FBE01645E7F4FCE010A
:104D900001960E9491510C942F310E9497368823DE
:104DA00021F00E948EF60E94BB3661E08BE89BE307
:104DB0000E94085A43E55BE364EA78E085E00E94DC
:104DC00050E20E9429E10C942F318091E11583FD7E
:104DD00002C00C942F3183E50E94E44581110C94AC
:104DE0003C340C942F3183E40E949B458823C1F10D
:104DF0008AEB98E00E94F95980916F13882339F16A
:104E0000BE016F5F7F4F8CE693E10E949AC58E01D1
:104E10000F5F1F4FD8018D918D01882319F00E94DB
:104E2000E038F8CFCE0101960E948EF980918C0770
:104E3000882389F080E20E94E0380CE817E0F8014E
:104E400081918F01882339F00E94E038F8CF80EB00
:104E500098E00E94F9598AE00E94E0380C942F31C2
:104E600083E50E94E445882309F10E943C45182F00
:104E700090E0CD970CF01CE3109336030F94354966
:104E80006B017C01212F30E0A8EEB3E00F9468683D
:104E9000C60ED71EE81EF91EC0923203D09233030D
:104EA000E0923403F09235030C942F310E944DF6BA
:104EB0000C942F318091E1158E7F8093E1150C9435
:104EC0002F318091E11583FD02C00C942F310E9497
:104ED00059E28091E11583FD02C00C942F3140917D
:104EE000580450915904BE01645E7F4F80E00F94D6
:104EF000DB3E8C01009711F40C942F316C8D7D8D6D
:104F000019821C8222E0AC01CE0101960E9458C990
:104F1000811102C0F12C14C0CE0101960F94493EBC
:104F20008823C1F361E0CE0101960E943CC5009741
:104F300089F325EEDC012C931C820E94EBC0F82E35
:104F4000CE0101960E9494C5B801FF2099F081EE30
:104F500098E00E94625B8AE00E94E0381092DD15C2
:104F60001092DE151092DF151092E0150E9400F5E8
:104F70000C942F3189EC98E00E94625B8DE39AE3F8
:104F80000E94F9590C942F318091E11582FD0E9405
:104F900062A78091E11583FD02C00C942F3160E07F
:104FA00080E50E940046182F682F80915804909148
:104FB00059040E9406FA83E50E94E445882381F0A3
:104FC0000E942C45AB01BC014093DD155093DE15CA
:104FD0006093DF157093E0158CE693E10E949BC30C
:104FE0000E948EF611110C942F310E94BB360C9446
:104FF0002F310E94816A0C942F31209158043091F6
:1050000059049091E11592609093E115C9010E94B5
:10501000BCF90C942F310F94EF100C942F3180E5D4
:105020000E949B45882311F40C942F310E943C452B
:1050300090E08536910510F084E690E080930511AC
:105040000C942F310E94549E0C942F310E9485A401
:105050000C942F3160E070E083E50E94F1458E34BE
:10506000910531F40E94F6A40E9429E10C942F319D
:1050700082E599E00E94F9596091D9047091DA04AF
:1050800089E499E00E94375B6091DB047091DC0455
:105090008CE399E00E94375B6091D9047091DA0447
:1050A0008091DB049091DC04681B790B8091CE0722
:1050B000815021E030E0823010F020E030E0621BCF
:1050C000730B81E399E00E94375B8AE00E94E0382D
:1050D00082E599E00E94F9598091DD049091DE0407
:1050E000A091DF04B091E0048C8F9D8FAE8FBF8FB5
:1050F000BE016F5F7F4FCE014C960E94A269BE0138
:105100006F5F7F4F84E299E00E94625B8091E104CF
:105110009091E204A091E304B091E4048C8F9D8F00
:10512000AE8FBF8FBE016F5F7F4FCE014C960E9446
:10513000A269BE016F5F7F4F84E199E00E94625BCC
:1051400020E030E04AE754E46091E5047091E60421
:105150008091E7049091E8040F94BC69AB01BC0115
:105160008CEF98E00E94445B8DE60E94E0388AE074
:105170000E94E0380C942F318091CD0D83FF02C046
:105180000C942F310F94AE1A87FF02C00C942F316C
:1051900089E40E94E445882311F40C944D340E9464
:1051A0003C4590E01816190614F481E090E026E0E2
:1051B000289FF001299FF00D1124EE52F14F8081BC
:1051C00091810C9457348091CD0D83FF02C00C94D3
:1051D0002F310F94AE1AF82E87FF02C00C942F3196
:1051E00089E40E94E445082F882311F40C9460346C
:1051F0000E943C4590E01816190614F481E090E0F6
:1052000026E0289FF001299FF00D1124EE52F14F66
:105210008081918110E00C9470340F94AE1A182F95
:1052200087FD0AC081E998E30E94F959812F0E9405
:105230007FB48AE00E94E038BCA9B0937B070C944D
:10524000653560E080E50F949A4DF82EE1E0E817AF
:1052500010F40C942F3181E40E949B45882329F09F
:105260006091F707062F10E002C00FEF10E089E40D
:105270000E94E445882399F00E943C4590E018166E
:10528000190614F481E090E026E0289FF001299FA0
:10529000F00D1124EE52F14F0481158108C083E511
:1052A0000E94E445882319F00E942C458B01EF2DC4
:1052B000F0E0E950F84FB8010F3F110519F010F078
:1052C0006FEF70E06083CBC760E080E50F949A4D8C
:1052D000823008F0C4C7E82FF0E0E950F84F1082A0
:1052E000BEC78EE40E94E445882309F4B8C70E9433
:1052F0002C45609354047093550480935604909306
:105300005704ADC783E50E949B45882331F060E0D8
:1053100083E50F949A4D8093CD0D0E94455C8FE5F7
:1053200099E00E94F9598091CD0D882369F1F1EB44
:10533000EF2EFAE0FF2E00E010E020E08091CD0D8E
:1053400090E0A0E0B0E0002E04C0B695A795979538
:1053500087950A94D2F780FF0EC0DD24D394D20E35
:10536000222319F08CE20E94E038F7018591949194
:105370000E94F9592D2D0F5F1F4FF2E0EF0EF11C27
:1053800005301105D9F667CD8FE69FE062CD83E544
:105390000E94E445882371F00E943C45282F30E0AC
:1053A0002D3331051CF48093000259C78CE38093A0
:1053B000000255C70E94455C4091000250E060E049
:1053C00070E086E699E00E94265B8AE00E94E03861
:1053D00046C78091CD0D83FD42C789E40E94E44514
:1053E000882311F40C94BA340E943C4590E01816BE
:1053F000190614F481E090E026E0289FF001299F2F
:10540000F00D1124EE52F14F828193810C94C5343A
:105410008091CD0D83FD23C789E40E94E445882354
:1054200011F40C94CC340E943C4590E018161906F7
:1054300014F481E090E026E0289FF001299FF00D10
:105440001124EE52F14F8281938110E00C94DD34EF
:1054500083E50E94E445882309F401C70E943C4586
:10546000182F90E0CD970CF01CE310933B030F94A2
:1054700035496B017C01212F30E0A8EEB3E00F9499
:105480006868C60ED71EE81EF91EC0923703D09278
:105490003803E0923903F0923A03E1C60F94FF1DFE
:1054A000DEC60E94DEB90E9485A40E94D2A80E9496
:1054B000CE3668EE73E080E090E00E9439590E9499
:1054C000D33660E08BE899E00F94B027C8C680918E
:1054D00041038F7E806280934103C1C60F94F21F07
:1054E000BEC683E50E949B45882309F4B8C60F9485
:1054F000354960932A0770932B0780932C0790936C
:105500002D070E94644520E030E04AE754E40F9400
:1055100024620F94356A60933C0370933D0380933B
:105520003E0390933F039BC60F94AE1A87FD97C628
:105530009091051094FD04C09091071097FF0AC048
:1055400072EEC72E72E0D72EEEECEE2EEDE0FE2EC0
:1055500010E009C090910810937091F7682F81E0D6
:105560000F9452207CC6D6018D916D010E94E445B6
:10557000882309F46DC0133009F063C00E946445AC
:105580004B015C0120E030E040EA51E40F94BE6141
:1055900087FF4EC0A50194016091EE0D7091EF0D53
:1055A0008091F00D9091F10D0F94BC692B013C019D
:1055B0009B01AC016091DB077091DC078091DD07F6
:1055C0009091DE070F9424626093DB077093DC07F1
:1055D0008093DD079093DE07A30192016091FE0D99
:1055E0007091FF0D8091000E9091010E0F94246236
:1055F0006093FE0D7093FF0D8093000E9093010E4B
:105600006091EB077091EC078091ED079091EE07A8
:105610000F94C361A30192010F9424620F94356A21
:105620006093EB077093EC078093ED079093EE0780
:105630008092EE0D9092EF0DA092F00DB092F10DD0
:1056400007C00E946445F701648B758B868B978B2E
:105650001F5FF4E0EF0EF11C143009F084CF0E94BC
:105660007DA6FDC50F94D10DFAC580915804909187
:105670005904009741F0DC012C91222321F060E0D5
:105680000F946728ECC50E9429E1E9C5F8018081E3
:10569000282F2B7F213499F08035E9F481818053C4
:1056A0008A30C8F498012E5F3F4F89012F5F3F4F2A
:1056B000F80180818032C9F3915041F70CC02181FB
:1056C000213349F4813421F0853461F741E0EACF98
:1056D000FF24F394E7CF41110E94455CFF2021F0A5
:1056E00088EB99E00E94F959C8010E94EB39B7C5CF
:1056F0000E949F9DB4C581E08093EA048093E904F1
:105700000E94F69DACC51092EA041092E9040E9432
:10571000F69DA5C560E070E083E50E94F14582300A
:1057200038F00E94755B8CEB99E00E94F95997C59F
:105730008C01112788E40E94E4458823E1F00E944F
:1057400060458A3A910544F00E946045833C91404F
:1057500034F40E94604505C08AEA90E002C082EC01
:1057600091E026E0209FF001219FF00D1124EE52E0
:10577000F14F9183808382E40E94E4458823D9F02D
:105780000E946045059744F00E9460458F36910560
:1057900034F40E94604505C085E090E002C08EE6CA
:1057A00090E026E0209FF001219FF00D1124EE52A1
:1057B000F14F9383828386E40E94E445882309F4B1
:1057C0004EC50E94604597FD09C00E9460458F3F0D
:1057D000910509F034F40E94604505C080E090E036
:1057E00002C08FEF90E026E0209FF001219FF00D96
:1057F0001124EE52F14F9583848331C50F94AE1A74
:10580000182F87FD2CC50091E70F84E40E94E44522
:10581000882311F40C9406350E9464456B017C01C9
:1058200020E030E0A9010F94BE61882341F124E01B
:105830001202F0011124ED51F04FC082D182E282B8
:10584000F38220E030E0A9016091E30F7091E40F52
:105850008091E50F9091E60F0F94BE6181110CC00D
:1058600080E090E0A0EEBFE38093E30F9093E40F1D
:10587000A093E50FB093E60F01E00C94063580E0AD
:105880008093E70F0E944B93EAC40F94AE1A87FDF2
:10589000E6C452EEE52E52E0F52E0EEC1DE06EED64
:1058A000C62E6DE0D62ED7018D917D010E949B45BD
:1058B000882359F00E9464450F94356AF80160838B
:1058C0007183828393830E9436A60C5F1F4FC0169C
:1058D000D10649F7C4C40F94AE1A87FDC0C442EE86
:1058E000E42E42E0F42E0EEC1DE0D7018D917D01F7
:1058F0000E949B45882339F00E946445F80164A307
:1059000075A386A397A30C5F1F4FFDE00E3D1F07F5
:1059100061F7A5C40F941121A2C40F948D209FC4D8
:1059200083E50E94E445882331F00E94604590930E
:105930001C0280931B028091051090910610A0918B
:105940000710B0910810892B8A2B8B2B09F087C484
:1059500060911B0270911C028EED99E00E94555BD4
:1059600085E20E94E0388AE00E94E03878C40F9413
:10597000AE1AF82E87FD73C483E50E94E4450F2D0F
:105980000F2C000C110B882369F10E946045F8016F
:10599000EE0FFF1FE35EFD4F91838083000F111F09
:1059A000000F111F98012B593D4F7901BC01990F30
:1059B000880B990B0F94C5612AE037ED43E25CE355
:1059C0000F942462F801E653FB4F2081318142811C
:1059D00053810F942462D7016D937D938D939C9393
:1059E00013973DC40E94455C85E40E94E03880E343
:1059F0008F0D0E94E038000F111FF801E35EFD4F8C
:105A00006081718182EE99E00E94555B85E20E947F
:105A1000E0388AE00E94E03822C480E50E949B457D
:105A2000882309F41CC460E070E080E50E94F14521
:105A3000F82E6FEF7FEF83E50E94F1458C01019610
:105A4000039708F00CC4F7FC0AC48F2D0E9472362D
:105A5000882339F00E94755B8AEE99E00E94F9591B
:105A6000FEC30E9462A760E08F2D0F94F6470F3FA0
:105A7000BFEF1B0731F00130110571F000E010E0BD
:105A80000DC08F2D0F94665C31E020E0892B09F06A
:105A900030E0032F122F02C001E010E08F2D0F9491
:105AA000665C8017910709F4DAC380E00E940C3A23
:105AB000F5CF80E50E949B45882309F4D0C30E945E
:105AC00060458C01892B09F07FC083E50E949B45CE
:105AD000882389F00E9460458F3FEFEF9E0729F4ED
